{
  "address": "0xE463ec80522a0208489783bD8Ff82C972A33D5aa",
  "abi": [
    {
      "inputs": [],
      "stateMutability": "nonpayable",
      "type": "constructor"
    },
    {
      "inputs": [],
      "name": "ECDSAInvalidSignature",
      "type": "error"
    },
    {
      "inputs": [
        {
          "internalType": "uint256",
          "name": "length",
          "type": "uint256"
        }
      ],
      "name": "ECDSAInvalidSignatureLength",
      "type": "error"
    },
    {
      "inputs": [
        {
          "internalType": "bytes32",
          "name": "s",
          "type": "bytes32"
        }
      ],
      "name": "ECDSAInvalidSignatureS",
      "type": "error"
    },
    {
      "inputs": [
        {
          "internalType": "address",
          "name": "seller",
          "type": "address"
        },
        {
          "internalType": "uint256",
          "name": "amount",
          "type": "uint256"
        }
      ],
      "name": "EarningsTransferError",
      "type": "error"
    },
    {
      "inputs": [
        {
          "internalType": "uint256",
          "name": "listingId",
          "type": "uint256"
        },
        {
          "internalType": "address",
          "name": "token",
          "type": "address"
        }
      ],
      "name": "InactiveItem",
      "type": "error"
    },
    {
      "inputs": [
        {
          "internalType": "address",
          "name": "seller",
          "type": "address"
        },
        {
          "internalType": "address",
          "name": "token",
          "type": "address"
        }
      ],
      "name": "InvalidBuyer",
      "type": "error"
    },
    {
      "inputs": [
        {
          "internalType": "uint256",
          "name": "deadline",
          "type": "uint256"
        }
      ],
      "name": "InvalidDeadline",
      "type": "error"
    },
    {
      "inputs": [
        {
          "internalType": "address",
          "name": "token",
          "type": "address"
        },
        {
          "internalType": "uint256",
          "name": "amount",
          "type": "uint256"
        }
      ],
      "name": "InvalidItemAmount",
      "type": "error"
    },
    {
      "inputs": [
        {
          "internalType": "uint256",
          "name": "listingId",
          "type": "uint256"
        }
      ],
      "name": "InvalidItemId",
      "type": "error"
    },
    {
      "inputs": [
        {
          "internalType": "address",
          "name": "token",
          "type": "address"
        },
        {
          "internalType": "uint256",
          "name": "price",
          "type": "uint256"
        }
      ],
      "name": "InvalidItemPrice",
      "type": "error"
    },
    {
      "inputs": [
        {
          "internalType": "uint256",
          "name": "tokensLength",
          "type": "uint256"
        },
        {
          "internalType": "uint256",
          "name": "pricesLength",
          "type": "uint256"
        },
        {
          "internalType": "uint256",
          "name": "amountsLength",
          "type": "uint256"
        }
      ],
      "name": "InvalidListingBatchLengths",
      "type": "error"
    },
    {
      "inputs": [
        {
          "internalType": "address",
          "name": "token",
          "type": "address"
        },
        {
          "internalType": "uint256",
          "name": "price",
          "type": "uint256"
        },
        {
          "internalType": "uint256",
          "name": "valueSent",
          "type": "uint256"
        }
      ],
      "name": "InvalidPayment",
      "type": "error"
    },
    {
      "inputs": [],
      "name": "InvalidShortString",
      "type": "error"
    },
    {
      "inputs": [
        {
          "internalType": "address",
          "name": "signer",
          "type": "address"
        },
        {
          "internalType": "address",
          "name": "expectedSigner",
          "type": "address"
        }
      ],
      "name": "InvalidSignature",
      "type": "error"
    },
    {
      "inputs": [
        {
          "internalType": "address",
          "name": "token",
          "type": "address"
        }
      ],
      "name": "InvalidToken",
      "type": "error"
    },
    {
      "inputs": [
        {
          "internalType": "address",
          "name": "seller",
          "type": "address"
        }
      ],
      "name": "NoEarningsToWithdraw",
      "type": "error"
    },
    {
      "inputs": [],
      "name": "ReentrancyGuardReentrantCall",
      "type": "error"
    },
    {
      "inputs": [
        {
          "internalType": "string",
          "name": "str",
          "type": "string"
        }
      ],
      "name": "StringTooLong",
      "type": "error"
    },
    {
      "inputs": [
        {
          "internalType": "address",
          "name": "token",
          "type": "address"
        },
        {
          "internalType": "uint256",
          "name": "amount",
          "type": "uint256"
        }
      ],
      "name": "TokenTransferError",
      "type": "error"
    },
    {
      "anonymous": false,
      "inputs": [],
      "name": "EIP712DomainChanged",
      "type": "event"
    },
    {
      "anonymous": false,
      "inputs": [
        {
          "indexed": true,
          "internalType": "address",
          "name": "seller",
          "type": "address"
        },
        {
          "indexed": false,
          "internalType": "uint256",
          "name": "amount",
          "type": "uint256"
        }
      ],
      "name": "FundsWithdrawn",
      "type": "event"
    },
    {
      "anonymous": false,
      "inputs": [
        {
          "indexed": true,
          "internalType": "address",
          "name": "owner",
          "type": "address"
        }
      ],
      "name": "Initialized",
      "type": "event"
    },
    {
      "anonymous": false,
      "inputs": [
        {
          "indexed": true,
          "internalType": "address",
          "name": "token",
          "type": "address"
        },
        {
          "indexed": true,
          "internalType": "address",
          "name": "seller",
          "type": "address"
        },
        {
          "indexed": false,
          "internalType": "uint256",
          "name": "amount",
          "type": "uint256"
        },
        {
          "indexed": false,
          "internalType": "uint256",
          "name": "price",
          "type": "uint256"
        }
      ],
      "name": "ItemListed",
      "type": "event"
    },
    {
      "anonymous": false,
      "inputs": [
        {
          "indexed": true,
          "internalType": "address",
          "name": "buyer",
          "type": "address"
        },
        {
          "indexed": true,
          "internalType": "address",
          "name": "token",
          "type": "address"
        },
        {
          "indexed": false,
          "internalType": "uint256",
          "name": "amount",
          "type": "uint256"
        },
        {
          "indexed": false,
          "internalType": "uint256",
          "name": "price",
          "type": "uint256"
        }
      ],
      "name": "ItemPurchased",
      "type": "event"
    },
    {
      "anonymous": false,
      "inputs": [
        {
          "indexed": true,
          "internalType": "address",
          "name": "seller",
          "type": "address"
        }
      ],
      "name": "SellerRegistered",
      "type": "event"
    },
    {
      "inputs": [
        {
          "internalType": "bytes",
          "name": "signature",
          "type": "bytes"
        },
        {
          "internalType": "address",
          "name": "seller",
          "type": "address"
        },
        {
          "internalType": "address",
          "name": "token",
          "type": "address"
        },
        {
          "internalType": "uint256",
          "name": "price",
          "type": "uint256"
        },
        {
          "internalType": "uint256",
          "name": "amount",
          "type": "uint256"
        },
        {
          "internalType": "uint256",
          "name": "deadline",
          "type": "uint256"
        }
      ],
      "name": "ListItemWithSig",
      "outputs": [],
      "stateMutability": "nonpayable",
      "type": "function"
    },
    {
      "inputs": [
        {
          "internalType": "address",
          "name": "buyer",
          "type": "address"
        }
      ],
      "name": "buyerNonces",
      "outputs": [
        {
          "internalType": "uint256",
          "name": "nonce",
          "type": "uint256"
        }
      ],
      "stateMutability": "view",
      "type": "function"
    },
    {
      "inputs": [],
      "name": "eip712Domain",
      "outputs": [
        {
          "internalType": "bytes1",
          "name": "fields",
          "type": "bytes1"
        },
        {
          "internalType": "string",
          "name": "name",
          "type": "string"
        },
        {
          "internalType": "string",
          "name": "version",
          "type": "string"
        },
        {
          "internalType": "uint256",
          "name": "chainId",
          "type": "uint256"
        },
        {
          "internalType": "address",
          "name": "verifyingContract",
          "type": "address"
        },
        {
          "internalType": "bytes32",
          "name": "salt",
          "type": "bytes32"
        },
        {
          "internalType": "uint256[]",
          "name": "extensions",
          "type": "uint256[]"
        }
      ],
      "stateMutability": "view",
      "type": "function"
    },
    {
      "inputs": [],
      "name": "getDomainSeparator",
      "outputs": [
        {
          "internalType": "bytes32",
          "name": "",
          "type": "bytes32"
        }
      ],
      "stateMutability": "view",
      "type": "function"
    },
    {
      "inputs": [],
      "name": "itemsIds",
      "outputs": [
        {
          "internalType": "uint256[]",
          "name": "",
          "type": "uint256[]"
        }
      ],
      "stateMutability": "view",
      "type": "function"
    },
    {
      "inputs": [
        {
          "internalType": "address[]",
          "name": "tokens",
          "type": "address[]"
        },
        {
          "internalType": "uint256[]",
          "name": "prices",
          "type": "uint256[]"
        },
        {
          "internalType": "uint256[]",
          "name": "amounts",
          "type": "uint256[]"
        }
      ],
      "name": "listBatchItems",
      "outputs": [],
      "stateMutability": "nonpayable",
      "type": "function"
    },
    {
      "inputs": [
        {
          "internalType": "address",
          "name": "token",
          "type": "address"
        },
        {
          "internalType": "uint256",
          "name": "price",
          "type": "uint256"
        },
        {
          "internalType": "uint256",
          "name": "amount",
          "type": "uint256"
        }
      ],
      "name": "listItem",
      "outputs": [],
      "stateMutability": "nonpayable",
      "type": "function"
    },
    {
      "inputs": [
        {
          "internalType": "uint256",
          "name": "listId",
          "type": "uint256"
        }
      ],
      "name": "listedItems",
      "outputs": [
        {
          "internalType": "address",
          "name": "token",
          "type": "address"
        },
        {
          "internalType": "address",
          "name": "seller",
          "type": "address"
        },
        {
          "internalType": "uint256",
          "name": "amount",
          "type": "uint256"
        },
        {
          "internalType": "uint256",
          "name": "price",
          "type": "uint256"
        },
        {
          "internalType": "bool",
          "name": "active",
          "type": "bool"
        }
      ],
      "stateMutability": "view",
      "type": "function"
    },
    {
      "inputs": [
        {
          "internalType": "uint256",
          "name": "itemId",
          "type": "uint256"
        }
      ],
      "name": "purchaseItem",
      "outputs": [],
      "stateMutability": "payable",
      "type": "function"
    },
    {
      "inputs": [
        {
          "internalType": "uint256",
          "name": "itemId",
          "type": "uint256"
        },
        {
          "internalType": "address",
          "name": "buyer",
          "type": "address"
        },
        {
          "internalType": "bytes",
          "name": "sig",
          "type": "bytes"
        },
        {
          "internalType": "uint256",
          "name": "deadline",
          "type": "uint256"
        }
      ],
      "name": "purchaseItemWithSig",
      "outputs": [],
      "stateMutability": "payable",
      "type": "function"
    },
    {
      "inputs": [
        {
          "internalType": "address",
          "name": "user",
          "type": "address"
        }
      ],
      "name": "sellers",
      "outputs": [
        {
          "internalType": "uint256",
          "name": "activeListedItems",
          "type": "uint256"
        },
        {
          "internalType": "uint256",
          "name": "totalSoldItems",
          "type": "uint256"
        },
        {
          "internalType": "uint256",
          "name": "totalListedItems",
          "type": "uint256"
        },
        {
          "internalType": "uint256",
          "name": "pendingWithdrawals",
          "type": "uint256"
        },
        {
          "internalType": "uint256",
          "name": "balance",
          "type": "uint256"
        },
        {
          "internalType": "uint256",
          "name": "signedNonce",
          "type": "uint256"
        },
        {
          "internalType": "bool",
          "name": "active",
          "type": "bool"
        }
      ],
      "stateMutability": "view",
      "type": "function"
    },
    {
      "inputs": [],
      "name": "withdrawFunds",
      "outputs": [],
      "stateMutability": "nonpayable",
      "type": "function"
    },
    {
      "inputs": [
        {
          "internalType": "address payable",
          "name": "seller",
          "type": "address"
        },
        {
          "internalType": "bytes",
          "name": "sig",
          "type": "bytes"
        },
        {
          "internalType": "uint256",
          "name": "deadline",
          "type": "uint256"
        }
      ],
      "name": "withdrawWithSig",
      "outputs": [],
      "stateMutability": "nonpayable",
      "type": "function"
    }
  ],
  "transactionHash": "0x946660ace8d37fafcb9d32b5da2c7e58cd849a08828ec61fe7ce6f277a2f7f10",
  "args": [],
  "numDeployments": 1,
  "solcInputHash": "57488acbb343f2c0f7d4b69747360d83",
  "bytecode": "0x61016060405234801561001157600080fd5b506040518060400160405280601581526020017f53656375726974697a654d61726b6574706c61636500000000000000000000008152506040518060400160405280600181526020017f3100000000000000000000000000000000000000000000000000000000000000815250600160008190555061009a60018361018560201b90919060201c565b61012081815250506100b660028261018560201b90919060201c565b6101408181525050818051906020012060e08181525050808051906020012061010081815250504660a081815250506100f36101d560201b60201c565b608081815250503073ffffffffffffffffffffffffffffffffffffffff1660c08173ffffffffffffffffffffffffffffffffffffffff1681525050505061013e61023060201b60201c565b73ffffffffffffffffffffffffffffffffffffffff167f908408e307fc569b417f6cbec5d5a06f44a0a505ac0479b47d421a4b2fd6a1e660405160405180910390a26107c6565b60006020835110156101a7576101a08361023860201b60201c565b90506101cf565b826101b7836102a060201b60201c565b60000190816101c691906104fa565b5060ff60001b90505b92915050565b60007f8b73c3c69bb8fe3d512ecc4cf759cc79239f7b179b0ffacaa9a75d522b39400f60e051610100514630604051602001610215959493929190610635565b60405160208183030381529060405280519060200120905090565b600033905090565b600080829050601f8151111561028557826040517f305a27a900000000000000000000000000000000000000000000000000000000815260040161027c919061070d565b60405180910390fd5b8051816102919061075f565b60001c1760001b915050919050565b6000819050919050565b600081519050919050565b7f4e487b7100000000000000000000000000000000000000000000000000000000600052604160045260246000fd5b7f4e487b7100000000000000000000000000000000000000000000000000000000600052602260045260246000fd5b6000600282049050600182168061032b57607f821691505b60208210810361033e5761033d6102e4565b5b50919050565b60008190508160005260206000209050919050565b60006020601f8301049050919050565b600082821b905092915050565b6000600883026103a67fffffffffffffffffffffffffffffffffffffffffffffffffffffffffffffffff82610369565b6103b08683610369565b95508019841693508086168417925050509392505050565b6000819050919050565b6000819050919050565b60006103f76103f26103ed846103c8565b6103d2565b6103c8565b9050919050565b6000819050919050565b610411836103dc565b61042561041d826103fe565b848454610376565b825550505050565b600090565b61043a61042d565b610445818484610408565b505050565b5b818110156104695761045e600082610432565b60018101905061044b565b5050565b601f8211156104ae5761047f81610344565b61048884610359565b81016020851015610497578190505b6104ab6104a385610359565b83018261044a565b50505b505050565b600082821c905092915050565b60006104d1600019846008026104b3565b1980831691505092915050565b60006104ea83836104c0565b9150826002028217905092915050565b610503826102aa565b67ffffffffffffffff81111561051c5761051b6102b5565b5b6105268254610313565b61053182828561046d565b600060209050601f8311600181146105645760008415610552578287015190505b61055c85826104de565b8655506105c4565b601f19841661057286610344565b60005b8281101561059a57848901518255600182019150602085019450602081019050610575565b868310156105b757848901516105b3601f8916826104c0565b8355505b6001600288020188555050505b505050505050565b6000819050919050565b6105df816105cc565b82525050565b6105ee816103c8565b82525050565b600073ffffffffffffffffffffffffffffffffffffffff82169050919050565b600061061f826105f4565b9050919050565b61062f81610614565b82525050565b600060a08201905061064a60008301886105d6565b61065760208301876105d6565b61066460408301866105d6565b61067160608301856105e5565b61067e6080830184610626565b9695505050505050565b600082825260208201905092915050565b60005b838110156106b757808201518184015260208101905061069c565b60008484015250505050565b6000601f19601f8301169050919050565b60006106df826102aa565b6106e98185610688565b93506106f9818560208601610699565b610702816106c3565b840191505092915050565b6000602082019050818103600083015261072781846106d4565b905092915050565b600081519050919050565b6000819050602082019050919050565b600061075682516105cc565b80915050919050565b600061076a8261072f565b826107748461073a565b905061077f8161074a565b925060208210156107bf576107ba7fffffffffffffffffffffffffffffffffffffffffffffffffffffffffffffffff83602003600802610369565b831692505b5050919050565b60805160a05160c05160e0516101005161012051610140516145146108206000396000612bcf01526000612b940152600061309b0152600061307a01526000612c0501526000612c5b01526000612c8401526145146000f3fe6080604052600436106100c25760003560e01c80637f37fb8e1161007f57806389bfd38f1161005957806389bfd38f14610251578063d23470611461027a578063d38ea5bf146102bb578063ed24911d146102d7576100c2565b80637f37fb8e146101cc57806383037070146101f757806384b0196e14610220576100c2565b80630d4038a5146100c757806312a06b50146100f057806324600fc31461011957806328647b9a1461013057806363d945ce1461014c5780636d47ab7214610189575b600080fd5b3480156100d357600080fd5b506100ee60048036038101906100e991906135d4565b610302565b005b3480156100fc57600080fd5b5061011760048036038101906101129190613895565b6108c9565b005b34801561012557600080fd5b5061012e610f95565b005b61014a6004803603810190610145919061393c565b6111ee565b005b34801561015857600080fd5b50610173600480360381019061016e91906139c4565b6116e2565b6040516101809190613a00565b60405180910390f35b34801561019557600080fd5b506101b060048036038101906101ab91906139c4565b6116fa565b6040516101c39796959493929190613a36565b60405180910390f35b3480156101d857600080fd5b506101e1611749565b6040516101ee9190613b63565b60405180910390f35b34801561020357600080fd5b5061021e60048036038101906102199190613bc3565b61175a565b005b34801561022c57600080fd5b506102356119a9565b6040516102489796959493929190613d19565b60405180910390f35b34801561025d57600080fd5b5061027860048036038101906102739190613d9d565b611a53565b005b34801561028657600080fd5b506102a1600480360381019061029c9190613df0565b611f57565b6040516102b2959493929190613e1d565b60405180910390f35b6102d560048036038101906102d09190613df0565b611fda565b005b3480156102e357600080fd5b506102ec6123f2565b6040516102f99190613e70565b60405180910390f35b61030d848484612401565b600460008673ffffffffffffffffffffffffffffffffffffffff1673ffffffffffffffffffffffffffffffffffffffff16815260200190815260200160002060060160009054906101000a900460ff1661047f576040518060e0016040528060008152602001600081526020016000815260200160008152602001600081526020016000815260200160011515815250600460008773ffffffffffffffffffffffffffffffffffffffff1673ffffffffffffffffffffffffffffffffffffffff168152602001908152602001600020600082015181600001556020820151816001015560408201518160020155606082015181600301556080820151816004015560a0820151816005015560c08201518160060160006101000a81548160ff0219169083151502179055509050508473ffffffffffffffffffffffffffffffffffffffff167f4d97d287a8f631378031b05cb24c876085261ddaa7b8f584477370ef473fbb3d60405160405180910390a25b428110156104c457806040517f277b2d740000000000000000000000000000000000000000000000000000000081526004016104bb9190613a00565b60405180910390fd5b6000600460008773ffffffffffffffffffffffffffffffffffffffff1673ffffffffffffffffffffffffffffffffffffffff16815260200190815260200160002060050154905061051b8686868685878e8e61249d565b600460008773ffffffffffffffffffffffffffffffffffffffff1673ffffffffffffffffffffffffffffffffffffffff168152602001908152602001600020600501600081548092919061056e90613eba565b919050555060008573ffffffffffffffffffffffffffffffffffffffff166323b872dd6105996125d0565b30876040518463ffffffff1660e01b81526004016105b993929190613f02565b6020604051808303816000875af11580156105d8573d6000803e3d6000fd5b505050506040513d601f19601f820116820180604052508101906105fc9190613f65565b9050806106425785846040517f9af95690000000000000000000000000000000000000000000000000000000008152600401610639929190613f92565b60405180910390fd5b60006040518060a001604052808873ffffffffffffffffffffffffffffffffffffffff1681526020018973ffffffffffffffffffffffffffffffffffffffff1681526020018681526020018781526020016001151581525090508060036000600654815260200190815260200160002060008201518160000160006101000a81548173ffffffffffffffffffffffffffffffffffffffff021916908373ffffffffffffffffffffffffffffffffffffffff16021790555060208201518160010160006101000a81548173ffffffffffffffffffffffffffffffffffffffff021916908373ffffffffffffffffffffffffffffffffffffffff160217905550604082015181600201556060820151816003015560808201518160040160006101000a81548160ff02191690831515021790555090505061078d60065460076125d890919063ffffffff16565b50600660008154809291906107a190613eba565b9190505550600460008973ffffffffffffffffffffffffffffffffffffffff1673ffffffffffffffffffffffffffffffffffffffff16815260200190815260200160002060000160008154809291906107f990613eba565b9190505550600460008973ffffffffffffffffffffffffffffffffffffffff1673ffffffffffffffffffffffffffffffffffffffff168152602001908152602001600020600201600081548092919061085190613eba565b91905055508773ffffffffffffffffffffffffffffffffffffffff168773ffffffffffffffffffffffffffffffffffffffff167fd547e933094f12a9159076970143ebe73234e64480317844b0dcb36117116de487896040516108b5929190613fbb565b60405180910390a350505050505050505050565b815183511415806108dc57508051835114155b15610925578251825182516040517fd117e39100000000000000000000000000000000000000000000000000000000815260040161091c93929190613fe4565b60405180910390fd5b60005b8351811015610d455761098a8482815181106109475761094661401b565b5b60200260200101518483815181106109625761096161401b565b5b602002602001015184848151811061097d5761097c61401b565b5b6020026020010151612401565b600084828151811061099f5761099e61401b565b5b602002602001015173ffffffffffffffffffffffffffffffffffffffff166323b872dd6109ca6125d0565b308686815181106109de576109dd61401b565b5b60200260200101516040518463ffffffff1660e01b8152600401610a0493929190613f02565b6020604051808303816000875af1158015610a23573d6000803e3d6000fd5b505050506040513d601f19601f82011682018060405250810190610a479190613f65565b905080610ac157848281518110610a6157610a6061401b565b5b6020026020010151838381518110610a7c57610a7b61401b565b5b60200260200101516040517f9af95690000000000000000000000000000000000000000000000000000000008152600401610ab8929190613f92565b60405180910390fd5b60006040518060a00160405280878581518110610ae157610ae061401b565b5b602002602001015173ffffffffffffffffffffffffffffffffffffffff168152602001610b0c6125d0565b73ffffffffffffffffffffffffffffffffffffffff168152602001858581518110610b3a57610b3961401b565b5b60200260200101518152602001868581518110610b5a57610b5961401b565b5b602002602001015181526020016001151581525090508060036000600654815260200190815260200160002060008201518160000160006101000a81548173ffffffffffffffffffffffffffffffffffffffff021916908373ffffffffffffffffffffffffffffffffffffffff16021790555060208201518160010160006101000a81548173ffffffffffffffffffffffffffffffffffffffff021916908373ffffffffffffffffffffffffffffffffffffffff160217905550604082015181600201556060820151816003015560808201518160040160006101000a81548160ff021916908315150217905550905050610c6160065460076125d890919063ffffffff16565b5060066000815480929190610c7590613eba565b9190505550610c826125d0565b73ffffffffffffffffffffffffffffffffffffffff16868481518110610cab57610caa61401b565b5b602002602001015173ffffffffffffffffffffffffffffffffffffffff167fd547e933094f12a9159076970143ebe73234e64480317844b0dcb36117116de4868681518110610cfd57610cfc61401b565b5b6020026020010151888781518110610d1857610d1761401b565b5b6020026020010151604051610d2e929190613fbb565b60405180910390a350508080600101915050610928565b5060046000610d526125d0565b73ffffffffffffffffffffffffffffffffffffffff1673ffffffffffffffffffffffffffffffffffffffff16815260200190815260200160002060060160009054906101000a900460ff16610ed1576040518060e001604052808451815260200184518152602001845181526020016000815260200160008152602001600081526020016001151581525060046000610de96125d0565b73ffffffffffffffffffffffffffffffffffffffff1673ffffffffffffffffffffffffffffffffffffffff168152602001908152602001600020600082015181600001556020820151816001015560408201518160020155606082015181600301556080820151816004015560a0820151816005015560c08201518160060160006101000a81548160ff021916908315150217905550905050610e8a6125d0565b73ffffffffffffffffffffffffffffffffffffffff167f4d97d287a8f631378031b05cb24c876085261ddaa7b8f584477370ef473fbb3d60405160405180910390a2610f90565b60046000610edd6125d0565b73ffffffffffffffffffffffffffffffffffffffff1673ffffffffffffffffffffffffffffffffffffffff1681526020019081526020016000206000016000815480929190610f2b90613eba565b919050555060046000610f3c6125d0565b73ffffffffffffffffffffffffffffffffffffffff1673ffffffffffffffffffffffffffffffffffffffff1681526020019081526020016000206002016000815480929190610f8a90613eba565b91905055505b505050565b610f9d6125f2565b600060046000610fab6125d0565b73ffffffffffffffffffffffffffffffffffffffff1673ffffffffffffffffffffffffffffffffffffffff168152602001908152602001600020600301540361103257610ff66125d0565b6040517f3744c7af000000000000000000000000000000000000000000000000000000008152600401611029919061404a565b60405180910390fd5b6000600460006110406125d0565b73ffffffffffffffffffffffffffffffffffffffff1673ffffffffffffffffffffffffffffffffffffffff168152602001908152602001600020600301549050600061108a6125d0565b73ffffffffffffffffffffffffffffffffffffffff16826040516110ad90614096565b60006040518083038185875af1925050503d80600081146110ea576040519150601f19603f3d011682016040523d82523d6000602084013e6110ef565b606091505b505090508061113e576111006125d0565b826040517f19e44218000000000000000000000000000000000000000000000000000000008152600401611135929190613f92565b60405180910390fd5b60006004600061114c6125d0565b73ffffffffffffffffffffffffffffffffffffffff1673ffffffffffffffffffffffffffffffffffffffff168152602001908152602001600020600301819055506111956125d0565b73ffffffffffffffffffffffffffffffffffffffff167feaff4b37086828766ad3268786972c0cd24259d4c87a80f9d3963a3c3d999b0d836040516111da9190613a00565b60405180910390a250506111ec612638565b565b6111f66125f2565b6112008486612642565b4281101561124557806040517f277b2d7400000000000000000000000000000000000000000000000000000000815260040161123c9190613a00565b60405180910390fd5b6000600560008673ffffffffffffffffffffffffffffffffffffffff1673ffffffffffffffffffffffffffffffffffffffff1681526020019081526020016000205490506112978587838588886128f9565b600560008673ffffffffffffffffffffffffffffffffffffffff1673ffffffffffffffffffffffffffffffffffffffff16815260200190815260200160002060008154809291906112e790613eba565b9190505550600060036000888152602001908152602001600020905060008160000160009054906101000a900473ffffffffffffffffffffffffffffffffffffffff1673ffffffffffffffffffffffffffffffffffffffff1663a9059cbb8884600201546040518363ffffffff1660e01b8152600401611368929190613f92565b6020604051808303816000875af1158015611387573d6000803e3d6000fd5b505050506040513d601f19601f820116820180604052508101906113ab9190613f65565b905080611419578160000160009054906101000a900473ffffffffffffffffffffffffffffffffffffffff1682600201546040517f9af95690000000000000000000000000000000000000000000000000000000008152600401611410929190613f92565b60405180910390fd5b600460008360010160009054906101000a900473ffffffffffffffffffffffffffffffffffffffff1673ffffffffffffffffffffffffffffffffffffffff1673ffffffffffffffffffffffffffffffffffffffff1681526020019081526020016000206000016000815480929190611490906140ab565b9190505550600460008360010160009054906101000a900473ffffffffffffffffffffffffffffffffffffffff1673ffffffffffffffffffffffffffffffffffffffff1673ffffffffffffffffffffffffffffffffffffffff168152602001908152602001600020600101600081548092919061150c90613eba565b919050555034600460008460010160009054906101000a900473ffffffffffffffffffffffffffffffffffffffff1673ffffffffffffffffffffffffffffffffffffffff1673ffffffffffffffffffffffffffffffffffffffff168152602001908152602001600020600401600082825461158791906140d4565b9250508190555034600460008460010160009054906101000a900473ffffffffffffffffffffffffffffffffffffffff1673ffffffffffffffffffffffffffffffffffffffff1673ffffffffffffffffffffffffffffffffffffffff168152602001908152602001600020600301600082825461160491906140d4565b9250508190555060008260040160006101000a81548160ff02191690831515021790555061163c886007612a2690919063ffffffff16565b508160000160009054906101000a900473ffffffffffffffffffffffffffffffffffffffff1673ffffffffffffffffffffffffffffffffffffffff168773ffffffffffffffffffffffffffffffffffffffff167f53d5014fa27fa078ecec13b4311f8520b2192980af8b38cf8e870ed265760464846002015485600301546040516116c8929190613fbb565b60405180910390a35050506116db612638565b5050505050565b60056020528060005260406000206000915090505481565b60046020528060005260406000206000915090508060000154908060010154908060020154908060030154908060040154908060050154908060060160009054906101000a900460ff16905087565b60606117556007612a40565b905090565b6117626125f2565b428110156117a757806040517f277b2d7400000000000000000000000000000000000000000000000000000000815260040161179e9190613a00565b60405180910390fd5b6000600460008673ffffffffffffffffffffffffffffffffffffffff1673ffffffffffffffffffffffffffffffffffffffff1681526020019081526020016000206005015490506117fb8582848787612a61565b600460008673ffffffffffffffffffffffffffffffffffffffff1673ffffffffffffffffffffffffffffffffffffffff168152602001908152602001600020600501600081548092919061184e90613eba565b91905055506000600460008773ffffffffffffffffffffffffffffffffffffffff1673ffffffffffffffffffffffffffffffffffffffff16815260200190815260200160002060030154905060008673ffffffffffffffffffffffffffffffffffffffff16826040516118c090614096565b60006040518083038185875af1925050503d80600081146118fd576040519150601f19603f3d011682016040523d82523d6000602084013e611902565b606091505b505090508061194a5786826040517f19e44218000000000000000000000000000000000000000000000000000000008152600401611941929190614167565b60405180910390fd5b8673ffffffffffffffffffffffffffffffffffffffff167feaff4b37086828766ad3268786972c0cd24259d4c87a80f9d3963a3c3d999b0d836040516119909190613a00565b60405180910390a25050506119a3612638565b50505050565b6000606080600080600060606119bd612b8b565b6119c5612bc6565b46306000801b600067ffffffffffffffff8111156119e6576119e5613694565b5b604051908082528060200260200182016040528015611a145781602001602082028036833780820191505090505b507f0f00000000000000000000000000000000000000000000000000000000000000959493929190965096509650965096509650965090919293949596565b611a5e838383612401565b60008373ffffffffffffffffffffffffffffffffffffffff166323b872dd611a846125d0565b30856040518463ffffffff1660e01b8152600401611aa493929190613f02565b6020604051808303816000875af1158015611ac3573d6000803e3d6000fd5b505050506040513d601f19601f82011682018060405250810190611ae79190613f65565b905080611b2d5783826040517f9af95690000000000000000000000000000000000000000000000000000000008152600401611b24929190613f92565b60405180910390fd5b60006040518060a001604052808673ffffffffffffffffffffffffffffffffffffffff168152602001611b5e6125d0565b73ffffffffffffffffffffffffffffffffffffffff1681526020018481526020018581526020016001151581525090508060036000600654815260200190815260200160002060008201518160000160006101000a81548173ffffffffffffffffffffffffffffffffffffffff021916908373ffffffffffffffffffffffffffffffffffffffff16021790555060208201518160010160006101000a81548173ffffffffffffffffffffffffffffffffffffffff021916908373ffffffffffffffffffffffffffffffffffffffff160217905550604082015181600201556060820151816003015560808201518160040160006101000a81548160ff021916908315150217905550905050611c7f60065460076125d890919063ffffffff16565b5060066000815480929190611c9390613eba565b919050555060046000611ca46125d0565b73ffffffffffffffffffffffffffffffffffffffff1673ffffffffffffffffffffffffffffffffffffffff16815260200190815260200160002060060160009054906101000a900460ff16611e23576040518060e001604052806001815260200160008152602001600181526020016000815260200160008152602001600081526020016001151581525060046000611d3b6125d0565b73ffffffffffffffffffffffffffffffffffffffff1673ffffffffffffffffffffffffffffffffffffffff168152602001908152602001600020600082015181600001556020820151816001015560408201518160020155606082015181600301556080820151816004015560a0820151816005015560c08201518160060160006101000a81548160ff021916908315150217905550905050611ddc6125d0565b73ffffffffffffffffffffffffffffffffffffffff167f4d97d287a8f631378031b05cb24c876085261ddaa7b8f584477370ef473fbb3d60405160405180910390a2611ee2565b60046000611e2f6125d0565b73ffffffffffffffffffffffffffffffffffffffff1673ffffffffffffffffffffffffffffffffffffffff1681526020019081526020016000206000016000815480929190611e7d90613eba565b919050555060046000611e8e6125d0565b73ffffffffffffffffffffffffffffffffffffffff1673ffffffffffffffffffffffffffffffffffffffff1681526020019081526020016000206002016000815480929190611edc90613eba565b91905055505b611eea6125d0565b73ffffffffffffffffffffffffffffffffffffffff168573ffffffffffffffffffffffffffffffffffffffff167fd547e933094f12a9159076970143ebe73234e64480317844b0dcb36117116de48587604051611f48929190613fbb565b60405180910390a35050505050565b60036020528060005260406000206000915090508060000160009054906101000a900473ffffffffffffffffffffffffffffffffffffffff16908060010160009054906101000a900473ffffffffffffffffffffffffffffffffffffffff16908060020154908060030154908060040160009054906101000a900460ff16905085565b611fe26125f2565b611ff3611fed6125d0565b82612642565b600060036000838152602001908152602001600020905060008160000160009054906101000a900473ffffffffffffffffffffffffffffffffffffffff1673ffffffffffffffffffffffffffffffffffffffff1663a9059cbb6120546125d0565b84600201546040518363ffffffff1660e01b8152600401612076929190613f92565b6020604051808303816000875af1158015612095573d6000803e3d6000fd5b505050506040513d601f19601f820116820180604052508101906120b99190613f65565b905080612127578160000160009054906101000a900473ffffffffffffffffffffffffffffffffffffffff1682600201546040517f9af9569000000000000000000000000000000000000000000000000000000000815260040161211e929190613f92565b60405180910390fd5b600460008360010160009054906101000a900473ffffffffffffffffffffffffffffffffffffffff1673ffffffffffffffffffffffffffffffffffffffff1673ffffffffffffffffffffffffffffffffffffffff168152602001908152602001600020600001600081548092919061219e906140ab565b9190505550600460008360010160009054906101000a900473ffffffffffffffffffffffffffffffffffffffff1673ffffffffffffffffffffffffffffffffffffffff1673ffffffffffffffffffffffffffffffffffffffff168152602001908152602001600020600101600081548092919061221a90613eba565b919050555034600460008460010160009054906101000a900473ffffffffffffffffffffffffffffffffffffffff1673ffffffffffffffffffffffffffffffffffffffff1673ffffffffffffffffffffffffffffffffffffffff168152602001908152602001600020600401600082825461229591906140d4565b9250508190555034600460008460010160009054906101000a900473ffffffffffffffffffffffffffffffffffffffff1673ffffffffffffffffffffffffffffffffffffffff1673ffffffffffffffffffffffffffffffffffffffff168152602001908152602001600020600301600082825461231291906140d4565b9250508190555060008260040160006101000a81548160ff02191690831515021790555061234a836007612a2690919063ffffffff16565b508160000160009054906101000a900473ffffffffffffffffffffffffffffffffffffffff1673ffffffffffffffffffffffffffffffffffffffff1661238e6125d0565b73ffffffffffffffffffffffffffffffffffffffff167f53d5014fa27fa078ecec13b4311f8520b2192980af8b38cf8e870ed265760464846002015485600301546040516123dd929190613fbb565b60405180910390a350506123ef612638565b50565b60006123fc612c01565b905090565b61240a83612cb8565b600082036124515782826040517fb5ea6668000000000000000000000000000000000000000000000000000000008152600401612448929190613f92565b60405180910390fd5b600081036124985782816040517f88cb8e8700000000000000000000000000000000000000000000000000000000815260040161248f929190613f92565b60405180910390fd5b505050565b60007f9f9da0136c035ba5d48ae4480ac7f7e0ac822ac1ebbd92b8371b42e77872322888888888886040516020016124da96959493929190614190565b60405160208183030381529060405280519060200120905060006124fd82612d65565b9050600061254f8286868080601f016020809104026020016040519081016040528093929190818152602001838380828437600081840152601f19601f82011690508083019250505050505050612d7f565b90508a73ffffffffffffffffffffffffffffffffffffffff168173ffffffffffffffffffffffffffffffffffffffff16146125c357808b6040517f42d750dc0000000000000000000000000000000000000000000000000000000081526004016125ba9291906141f1565b60405180910390fd5b5050505050505050505050565b600033905090565b60006125ea836000018360001b612dab565b905092915050565b60026000540361262e576040517f3ee5aeb500000000000000000000000000000000000000000000000000000000815260040160405180910390fd5b6002600081905550565b6001600081905550565b612656816007612e1b90919063ffffffff16565b61269757806040517f26beea0400000000000000000000000000000000000000000000000000000000815260040161268e9190613a00565b60405180910390fd5b60065481106126dd57806040517f26beea040000000000000000000000000000000000000000000000000000000081526004016126d49190613a00565b60405180910390fd5b6000600360008381526020019081526020016000206040518060a00160405290816000820160009054906101000a900473ffffffffffffffffffffffffffffffffffffffff1673ffffffffffffffffffffffffffffffffffffffff1673ffffffffffffffffffffffffffffffffffffffff1681526020016001820160009054906101000a900473ffffffffffffffffffffffffffffffffffffffff1673ffffffffffffffffffffffffffffffffffffffff1673ffffffffffffffffffffffffffffffffffffffff16815260200160028201548152602001600382015481526020016004820160009054906101000a900460ff16151515158152505090508060800151612826578181600001516040517fbbbb4b5200000000000000000000000000000000000000000000000000000000815260040161281d92919061421a565b60405180910390fd5b8060600151341461287a5780600001518160600151346040517ffc746cd300000000000000000000000000000000000000000000000000000000815260040161287193929190614243565b60405180910390fd5b8273ffffffffffffffffffffffffffffffffffffffff16816020015173ffffffffffffffffffffffffffffffffffffffff16036128f4578281600001516040517fa1267b1c0000000000000000000000000000000000000000000000000000000081526004016128eb9291906141f1565b60405180910390fd5b505050565b60007fb37d7846b6f2870a0dd9961eb084a3a483fe7da2d0fe1571c7f0d832312b120c868686604051602001612932949392919061427a565b604051602081830303815290604052805190602001209050600061295582612d65565b905060006129a78286868080601f016020809104026020016040519081016040528093929190818152602001838380828437600081840152601f19601f82011690508083019250505050505050612d7f565b90508873ffffffffffffffffffffffffffffffffffffffff168173ffffffffffffffffffffffffffffffffffffffff1614612a1b5780896040517f42d750dc000000000000000000000000000000000000000000000000000000008152600401612a129291906141f1565b60405180910390fd5b505050505050505050565b6000612a38836000018360001b612e35565b905092915050565b60606000612a5083600001612f49565b905060608190508092505050919050565b60007fc4552f0f6929a7fe4213eedb41c2fe8b2d437fbd920a770fbc65762f4b0eda398585604051602001612a98939291906142bf565b6040516020818303038152906040528051906020012090506000612abb82612d65565b90506000612b0d8286868080601f016020809104026020016040519081016040528093929190818152602001838380828437600081840152601f19601f82011690508083019250505050505050612d7f565b90508773ffffffffffffffffffffffffffffffffffffffff168173ffffffffffffffffffffffffffffffffffffffff1614612b815780886040517f42d750dc000000000000000000000000000000000000000000000000000000008152600401612b789291906141f1565b60405180910390fd5b5050505050505050565b6060612bc160017f0000000000000000000000000000000000000000000000000000000000000000612fa590919063ffffffff16565b905090565b6060612bfc60027f0000000000000000000000000000000000000000000000000000000000000000612fa590919063ffffffff16565b905090565b60007f000000000000000000000000000000000000000000000000000000000000000073ffffffffffffffffffffffffffffffffffffffff163073ffffffffffffffffffffffffffffffffffffffff16148015612c7d57507f000000000000000000000000000000000000000000000000000000000000000046145b15612caa577f00000000000000000000000000000000000000000000000000000000000000009050612cb5565b612cb2613055565b90505b90565b8073ffffffffffffffffffffffffffffffffffffffff166318160ddd6040518163ffffffff1660e01b8152600401602060405180830381865afa925050508015612d2057506040513d601f19601f82011682018060405250810190612d1d919061430b565b60015b612d6157806040517f961c9a4f000000000000000000000000000000000000000000000000000000008152600401612d58919061404a565b60405180910390fd5b5050565b6000612d78612d72612c01565b836130eb565b9050919050565b600080600080612d8f868661312c565b925092509250612d9f8282613188565b82935050505092915050565b6000612db783836132ec565b612e10578260000182908060018154018082558091505060019003906000526020600020016000909190919091505582600001805490508360010160008481526020019081526020016000208190555060019050612e15565b600090505b92915050565b6000612e2d836000018360001b6132ec565b905092915050565b60008083600101600084815260200190815260200160002054905060008114612f3d576000600182612e679190614338565b9050600060018660000180549050612e7f9190614338565b9050808214612eee576000866000018281548110612ea057612e9f61401b565b5b9060005260206000200154905080876000018481548110612ec457612ec361401b565b5b90600052602060002001819055508387600101600083815260200190815260200160002081905550505b85600001805480612f0257612f0161436c565b5b600190038181906000526020600020016000905590558560010160008681526020019081526020016000206000905560019350505050612f43565b60009150505b92915050565b606081600001805480602002602001604051908101604052809291908181526020018280548015612f9957602002820191906000526020600020905b815481526020019060010190808311612f85575b50505050509050919050565b606060ff60001b8314612fc257612fbb8361330f565b905061304f565b818054612fce906143ca565b80601f0160208091040260200160405190810160405280929190818152602001828054612ffa906143ca565b80156130475780601f1061301c57610100808354040283529160200191613047565b820191906000526020600020905b81548152906001019060200180831161302a57829003601f168201915b505050505090505b92915050565b60007f8b73c3c69bb8fe3d512ecc4cf759cc79239f7b179b0ffacaa9a75d522b39400f7f00000000000000000000000000000000000000000000000000000000000000007f000000000000000000000000000000000000000000000000000000000000000046306040516020016130d09594939291906143fb565b60405160208183030381529060405280519060200120905090565b60006040517f190100000000000000000000000000000000000000000000000000000000000081528360028201528260228201526042812091505092915050565b600080600060418451036131715760008060006020870151925060408701519150606087015160001a905061316388828585613383565b955095509550505050613181565b60006002855160001b9250925092505b9250925092565b6000600381111561319c5761319b61444e565b5b8260038111156131af576131ae61444e565b5b03156132e857600160038111156131c9576131c861444e565b5b8260038111156131dc576131db61444e565b5b03613213576040517ff645eedf00000000000000000000000000000000000000000000000000000000815260040160405180910390fd5b600260038111156132275761322661444e565b5b82600381111561323a5761323961444e565b5b0361327f578060001c6040517ffce698f70000000000000000000000000000000000000000000000000000000081526004016132769190613a00565b60405180910390fd5b6003808111156132925761329161444e565b5b8260038111156132a5576132a461444e565b5b036132e757806040517fd78bce0c0000000000000000000000000000000000000000000000000000000081526004016132de9190613e70565b60405180910390fd5b5b5050565b600080836001016000848152602001908152602001600020541415905092915050565b6060600061331c83613477565b90506000602067ffffffffffffffff81111561333b5761333a613694565b5b6040519080825280601f01601f19166020018201604052801561336d5781602001600182028036833780820191505090505b5090508181528360208201528092505050919050565b60008060007f7fffffffffffffffffffffffffffffff5d576e7357a4501ddfe92f46681b20a08460001c11156133c357600060038592509250925061346d565b6000600188888888604051600081526020016040526040516133e89493929190614499565b6020604051602081039080840390855afa15801561340a573d6000803e3d6000fd5b505050602060405103519050600073ffffffffffffffffffffffffffffffffffffffff168173ffffffffffffffffffffffffffffffffffffffff160361345e57600060016000801b9350935093505061346d565b8060008060001b935093509350505b9450945094915050565b60008060ff8360001c169050601f8111156134be576040517fb3512b0c00000000000000000000000000000000000000000000000000000000815260040160405180910390fd5b80915050919050565b6000604051905090565b600080fd5b600080fd5b600080fd5b600080fd5b600080fd5b60008083601f840112613500576134ff6134db565b5b8235905067ffffffffffffffff81111561351d5761351c6134e0565b5b602083019150836001820283011115613539576135386134e5565b5b9250929050565b600073ffffffffffffffffffffffffffffffffffffffff82169050919050565b600061356b82613540565b9050919050565b61357b81613560565b811461358657600080fd5b50565b60008135905061359881613572565b92915050565b6000819050919050565b6135b18161359e565b81146135bc57600080fd5b50565b6000813590506135ce816135a8565b92915050565b600080600080600080600060c0888a0312156135f3576135f26134d1565b5b600088013567ffffffffffffffff811115613611576136106134d6565b5b61361d8a828b016134ea565b975097505060206136308a828b01613589565b95505060406136418a828b01613589565b94505060606136528a828b016135bf565b93505060806136638a828b016135bf565b92505060a06136748a828b016135bf565b91505092959891949750929550565b6000601f19601f8301169050919050565b7f4e487b7100000000000000000000000000000000000000000000000000000000600052604160045260246000fd5b6136cc82613683565b810181811067ffffffffffffffff821117156136eb576136ea613694565b5b80604052505050565b60006136fe6134c7565b905061370a82826136c3565b919050565b600067ffffffffffffffff82111561372a57613729613694565b5b602082029050602081019050919050565b600061374e6137498461370f565b6136f4565b90508083825260208201905060208402830185811115613771576137706134e5565b5b835b8181101561379a57806137868882613589565b845260208401935050602081019050613773565b5050509392505050565b600082601f8301126137b9576137b86134db565b5b81356137c984826020860161373b565b91505092915050565b600067ffffffffffffffff8211156137ed576137ec613694565b5b602082029050602081019050919050565b600061381161380c846137d2565b6136f4565b90508083825260208201905060208402830185811115613834576138336134e5565b5b835b8181101561385d578061384988826135bf565b845260208401935050602081019050613836565b5050509392505050565b600082601f83011261387c5761387b6134db565b5b813561388c8482602086016137fe565b91505092915050565b6000806000606084860312156138ae576138ad6134d1565b5b600084013567ffffffffffffffff8111156138cc576138cb6134d6565b5b6138d8868287016137a4565b935050602084013567ffffffffffffffff8111156138f9576138f86134d6565b5b61390586828701613867565b925050604084013567ffffffffffffffff811115613926576139256134d6565b5b61393286828701613867565b9150509250925092565b600080600080600060808688031215613958576139576134d1565b5b6000613966888289016135bf565b955050602061397788828901613589565b945050604086013567ffffffffffffffff811115613998576139976134d6565b5b6139a4888289016134ea565b935093505060606139b7888289016135bf565b9150509295509295909350565b6000602082840312156139da576139d96134d1565b5b60006139e884828501613589565b91505092915050565b6139fa8161359e565b82525050565b6000602082019050613a1560008301846139f1565b92915050565b60008115159050919050565b613a3081613a1b565b82525050565b600060e082019050613a4b600083018a6139f1565b613a5860208301896139f1565b613a6560408301886139f1565b613a7260608301876139f1565b613a7f60808301866139f1565b613a8c60a08301856139f1565b613a9960c0830184613a27565b98975050505050505050565b600081519050919050565b600082825260208201905092915050565b6000819050602082019050919050565b613ada8161359e565b82525050565b6000613aec8383613ad1565b60208301905092915050565b6000602082019050919050565b6000613b1082613aa5565b613b1a8185613ab0565b9350613b2583613ac1565b8060005b83811015613b56578151613b3d8882613ae0565b9750613b4883613af8565b925050600181019050613b29565b5085935050505092915050565b60006020820190508181036000830152613b7d8184613b05565b905092915050565b6000613b9082613540565b9050919050565b613ba081613b85565b8114613bab57600080fd5b50565b600081359050613bbd81613b97565b92915050565b60008060008060608587031215613bdd57613bdc6134d1565b5b6000613beb87828801613bae565b945050602085013567ffffffffffffffff811115613c0c57613c0b6134d6565b5b613c18878288016134ea565b93509350506040613c2b878288016135bf565b91505092959194509250565b60007fff0000000000000000000000000000000000000000000000000000000000000082169050919050565b613c6c81613c37565b82525050565b600081519050919050565b600082825260208201905092915050565b60005b83811015613cac578082015181840152602081019050613c91565b60008484015250505050565b6000613cc382613c72565b613ccd8185613c7d565b9350613cdd818560208601613c8e565b613ce681613683565b840191505092915050565b613cfa81613560565b82525050565b6000819050919050565b613d1381613d00565b82525050565b600060e082019050613d2e600083018a613c63565b8181036020830152613d408189613cb8565b90508181036040830152613d548188613cb8565b9050613d6360608301876139f1565b613d706080830186613cf1565b613d7d60a0830185613d0a565b81810360c0830152613d8f8184613b05565b905098975050505050505050565b600080600060608486031215613db657613db56134d1565b5b6000613dc486828701613589565b9350506020613dd5868287016135bf565b9250506040613de6868287016135bf565b9150509250925092565b600060208284031215613e0657613e056134d1565b5b6000613e14848285016135bf565b91505092915050565b600060a082019050613e326000830188613cf1565b613e3f6020830187613cf1565b613e4c60408301866139f1565b613e5960608301856139f1565b613e666080830184613a27565b9695505050505050565b6000602082019050613e856000830184613d0a565b92915050565b7f4e487b7100000000000000000000000000000000000000000000000000000000600052601160045260246000fd5b6000613ec58261359e565b91507fffffffffffffffffffffffffffffffffffffffffffffffffffffffffffffffff8203613ef757613ef6613e8b565b5b600182019050919050565b6000606082019050613f176000830186613cf1565b613f246020830185613cf1565b613f3160408301846139f1565b949350505050565b613f4281613a1b565b8114613f4d57600080fd5b50565b600081519050613f5f81613f39565b92915050565b600060208284031215613f7b57613f7a6134d1565b5b6000613f8984828501613f50565b91505092915050565b6000604082019050613fa76000830185613cf1565b613fb460208301846139f1565b9392505050565b6000604082019050613fd060008301856139f1565b613fdd60208301846139f1565b9392505050565b6000606082019050613ff960008301866139f1565b61400660208301856139f1565b61401360408301846139f1565b949350505050565b7f4e487b7100000000000000000000000000000000000000000000000000000000600052603260045260246000fd5b600060208201905061405f6000830184613cf1565b92915050565b600081905092915050565b50565b6000614080600083614065565b915061408b82614070565b600082019050919050565b60006140a182614073565b9150819050919050565b60006140b68261359e565b9150600082036140c9576140c8613e8b565b5b600182039050919050565b60006140df8261359e565b91506140ea8361359e565b925082820190508082111561410257614101613e8b565b5b92915050565b6000819050919050565b600061412d61412861412384613540565b614108565b613540565b9050919050565b600061413f82614112565b9050919050565b600061415182614134565b9050919050565b61416181614146565b82525050565b600060408201905061417c6000830185614158565b61418960208301846139f1565b9392505050565b600060c0820190506141a56000830189613d0a565b6141b26020830188613cf1565b6141bf60408301876139f1565b6141cc60608301866139f1565b6141d960808301856139f1565b6141e660a08301846139f1565b979650505050505050565b60006040820190506142066000830185613cf1565b6142136020830184613cf1565b9392505050565b600060408201905061422f60008301856139f1565b61423c6020830184613cf1565b9392505050565b60006060820190506142586000830186613cf1565b61426560208301856139f1565b61427260408301846139f1565b949350505050565b600060808201905061428f6000830187613d0a565b61429c60208301866139f1565b6142a960408301856139f1565b6142b660608301846139f1565b95945050505050565b60006060820190506142d46000830186613d0a565b6142e160208301856139f1565b6142ee60408301846139f1565b949350505050565b600081519050614305816135a8565b92915050565b600060208284031215614321576143206134d1565b5b600061432f848285016142f6565b91505092915050565b60006143438261359e565b915061434e8361359e565b925082820390508181111561436657614365613e8b565b5b92915050565b7f4e487b7100000000000000000000000000000000000000000000000000000000600052603160045260246000fd5b7f4e487b7100000000000000000000000000000000000000000000000000000000600052602260045260246000fd5b600060028204905060018216806143e257607f821691505b6020821081036143f5576143f461439b565b5b50919050565b600060a0820190506144106000830188613d0a565b61441d6020830187613d0a565b61442a6040830186613d0a565b61443760608301856139f1565b6144446080830184613cf1565b9695505050505050565b7f4e487b7100000000000000000000000000000000000000000000000000000000600052602160045260246000fd5b600060ff82169050919050565b6144938161447d565b82525050565b60006080820190506144ae6000830187613d0a565b6144bb602083018661448a565b6144c86040830185613d0a565b6144d56060830184613d0a565b9594505050505056fea2646970667358221220dbd92004fc7affce45e58f62d31a7da290c6d21ad1582b32240ea9aa0c1f971e64736f6c634300081c0033",
  "devdoc": {
    "errors": {
      "ECDSAInvalidSignature()": [
        {
          "details": "The signature derives the `address(0)`."
        }
      ],
      "ECDSAInvalidSignatureLength(uint256)": [
        {
          "details": "The signature has an invalid length."
        }
      ],
      "ECDSAInvalidSignatureS(bytes32)": [
        {
          "details": "The signature has an S value that is in the upper half order."
        }
      ],
      "ReentrancyGuardReentrantCall()": [
        {
          "details": "Unauthorized reentrant call."
        }
      ]
    },
    "events": {
      "EIP712DomainChanged()": {
        "details": "MAY be emitted to signal that the domain could have changed."
      }
    },
    "kind": "dev",
    "methods": {
      "ListItemWithSig(bytes,address,address,uint256,uint256,uint256)": {
        "details": "Pre-list an item for sale",
        "params": {
          "amount": "The amount of tokens to list",
          "deadline": "The deadline of the pre-listing",
          "price": "The price of the item in WEI",
          "seller": "The address of the seller",
          "signature": "The signature of the seller",
          "token": "The address of the ERC20 token to be listed"
        }
      },
      "eip712Domain()": {
        "details": "returns the fields and values that describe the domain separator used by this contract for EIP-712 signature."
      },
      "itemsIds()": {
        "details": "Get the current list IDIt will only return active listed items.",
        "returns": {
          "_0": "The current list IDs."
        }
      },
      "listBatchItems(address[],uint256[],uint256[])": {
        "details": "List multiple items for sale",
        "params": {
          "amounts": "The amounts of tokens to list",
          "prices": "The prices of the items in WEI",
          "tokens": "The addresses of the ERC20 tokens to be listed"
        }
      },
      "listItem(address,uint256,uint256)": {
        "details": "List an item for sale",
        "params": {
          "amount": "The amount of tokens to list",
          "price": "The price of the item in WEI",
          "token": "The address of the ERC20 token to be listed"
        }
      },
      "purchaseItem(uint256)": {
        "details": "Purchase an item",
        "params": {
          "itemId": "The ID of the item to be purchased"
        }
      },
      "purchaseItemWithSig(uint256,address,bytes,uint256)": {
        "details": "Purchase an item with a signature",
        "params": {
          "buyer": "The address of the buyer",
          "deadline": "The deadline of the purchase",
          "itemId": "The ID of the item to be purchased",
          "sig": "The signature of the buyer"
        }
      },
      "withdrawFunds()": {
        "details": "Withdraw funds from the marketplace"
      },
      "withdrawWithSig(address,bytes,uint256)": {
        "details": "Withdraw funds from the marketplace with a signature",
        "params": {
          "deadline": "The deadline of the withdrawal",
          "seller": "The address of the seller",
          "sig": "The signature of the seller"
        }
      }
    },
    "version": 1
  },
  "userdoc": {
    "kind": "user",
    "methods": {},
    "version": 1
  },
  "storageLayout": {
    "storage": [
      {
        "astId": 1387,
        "contract": "contracts/SecuritizeMarketplace.sol:SecuritizeMarketplace",
        "label": "_status",
        "offset": 0,
        "slot": "0",
        "type": "t_uint256"
      },
      {
        "astId": 3703,
        "contract": "contracts/SecuritizeMarketplace.sol:SecuritizeMarketplace",
        "label": "_nameFallback",
        "offset": 0,
        "slot": "1",
        "type": "t_string_storage"
      },
      {
        "astId": 3705,
        "contract": "contracts/SecuritizeMarketplace.sol:SecuritizeMarketplace",
        "label": "_versionFallback",
        "offset": 0,
        "slot": "2",
        "type": "t_string_storage"
      },
      {
        "astId": 8251,
        "contract": "contracts/SecuritizeMarketplace.sol:SecuritizeMarketplace",
        "label": "listedItems",
        "offset": 0,
        "slot": "3",
        "type": "t_mapping(t_uint256,t_struct(ListedItem)9440_storage)"
      },
      {
        "astId": 8256,
        "contract": "contracts/SecuritizeMarketplace.sol:SecuritizeMarketplace",
        "label": "sellers",
        "offset": 0,
        "slot": "4",
        "type": "t_mapping(t_address,t_struct(Seller)9455_storage)"
      },
      {
        "astId": 8260,
        "contract": "contracts/SecuritizeMarketplace.sol:SecuritizeMarketplace",
        "label": "buyerNonces",
        "offset": 0,
        "slot": "5",
        "type": "t_mapping(t_address,t_uint256)"
      },
      {
        "astId": 8262,
        "contract": "contracts/SecuritizeMarketplace.sol:SecuritizeMarketplace",
        "label": "_currentListId",
        "offset": 0,
        "slot": "6",
        "type": "t_uint256"
      },
      {
        "astId": 8265,
        "contract": "contracts/SecuritizeMarketplace.sol:SecuritizeMarketplace",
        "label": "_itemsSet",
        "offset": 0,
        "slot": "7",
        "type": "t_struct(UintSet)8063_storage"
      }
    ],
    "types": {
      "t_address": {
        "encoding": "inplace",
        "label": "address",
        "numberOfBytes": "20"
      },
      "t_array(t_bytes32)dyn_storage": {
        "base": "t_bytes32",
        "encoding": "dynamic_array",
        "label": "bytes32[]",
        "numberOfBytes": "32"
      },
      "t_bool": {
        "encoding": "inplace",
        "label": "bool",
        "numberOfBytes": "1"
      },
      "t_bytes32": {
        "encoding": "inplace",
        "label": "bytes32",
        "numberOfBytes": "32"
      },
      "t_mapping(t_address,t_struct(Seller)9455_storage)": {
        "encoding": "mapping",
        "key": "t_address",
        "label": "mapping(address => struct ISecuritizeMarketplace.Seller)",
        "numberOfBytes": "32",
        "value": "t_struct(Seller)9455_storage"
      },
      "t_mapping(t_address,t_uint256)": {
        "encoding": "mapping",
        "key": "t_address",
        "label": "mapping(address => uint256)",
        "numberOfBytes": "32",
        "value": "t_uint256"
      },
      "t_mapping(t_bytes32,t_uint256)": {
        "encoding": "mapping",
        "key": "t_bytes32",
        "label": "mapping(bytes32 => uint256)",
        "numberOfBytes": "32",
        "value": "t_uint256"
      },
      "t_mapping(t_uint256,t_struct(ListedItem)9440_storage)": {
        "encoding": "mapping",
        "key": "t_uint256",
        "label": "mapping(uint256 => struct ISecuritizeMarketplace.ListedItem)",
        "numberOfBytes": "32",
        "value": "t_struct(ListedItem)9440_storage"
      },
      "t_string_storage": {
        "encoding": "bytes",
        "label": "string",
        "numberOfBytes": "32"
      },
      "t_struct(ListedItem)9440_storage": {
        "encoding": "inplace",
        "label": "struct ISecuritizeMarketplace.ListedItem",
        "members": [
          {
            "astId": 9431,
            "contract": "contracts/SecuritizeMarketplace.sol:SecuritizeMarketplace",
            "label": "token",
            "offset": 0,
            "slot": "0",
            "type": "t_address"
          },
          {
            "astId": 9433,
            "contract": "contracts/SecuritizeMarketplace.sol:SecuritizeMarketplace",
            "label": "seller",
            "offset": 0,
            "slot": "1",
            "type": "t_address"
          },
          {
            "astId": 9435,
            "contract": "contracts/SecuritizeMarketplace.sol:SecuritizeMarketplace",
            "label": "amount",
            "offset": 0,
            "slot": "2",
            "type": "t_uint256"
          },
          {
            "astId": 9437,
            "contract": "contracts/SecuritizeMarketplace.sol:SecuritizeMarketplace",
            "label": "price",
            "offset": 0,
            "slot": "3",
            "type": "t_uint256"
          },
          {
            "astId": 9439,
            "contract": "contracts/SecuritizeMarketplace.sol:SecuritizeMarketplace",
            "label": "active",
            "offset": 0,
            "slot": "4",
            "type": "t_bool"
          }
        ],
        "numberOfBytes": "160"
      },
      "t_struct(Seller)9455_storage": {
        "encoding": "inplace",
        "label": "struct ISecuritizeMarketplace.Seller",
        "members": [
          {
            "astId": 9442,
            "contract": "contracts/SecuritizeMarketplace.sol:SecuritizeMarketplace",
            "label": "activeListedItems",
            "offset": 0,
            "slot": "0",
            "type": "t_uint256"
          },
          {
            "astId": 9444,
            "contract": "contracts/SecuritizeMarketplace.sol:SecuritizeMarketplace",
            "label": "totalSoldItems",
            "offset": 0,
            "slot": "1",
            "type": "t_uint256"
          },
          {
            "astId": 9446,
            "contract": "contracts/SecuritizeMarketplace.sol:SecuritizeMarketplace",
            "label": "totalListedItems",
            "offset": 0,
            "slot": "2",
            "type": "t_uint256"
          },
          {
            "astId": 9448,
            "contract": "contracts/SecuritizeMarketplace.sol:SecuritizeMarketplace",
            "label": "pendingWithdrawals",
            "offset": 0,
            "slot": "3",
            "type": "t_uint256"
          },
          {
            "astId": 9450,
            "contract": "contracts/SecuritizeMarketplace.sol:SecuritizeMarketplace",
            "label": "balance",
            "offset": 0,
            "slot": "4",
            "type": "t_uint256"
          },
          {
            "astId": 9452,
            "contract": "contracts/SecuritizeMarketplace.sol:SecuritizeMarketplace",
            "label": "signedNonce",
            "offset": 0,
            "slot": "5",
            "type": "t_uint256"
          },
          {
            "astId": 9454,
            "contract": "contracts/SecuritizeMarketplace.sol:SecuritizeMarketplace",
            "label": "active",
            "offset": 0,
            "slot": "6",
            "type": "t_bool"
          }
        ],
        "numberOfBytes": "224"
      },
      "t_struct(Set)7522_storage": {
        "encoding": "inplace",
        "label": "struct EnumerableSet.Set",
        "members": [
          {
            "astId": 7517,
            "contract": "contracts/SecuritizeMarketplace.sol:SecuritizeMarketplace",
            "label": "_values",
            "offset": 0,
            "slot": "0",
            "type": "t_array(t_bytes32)dyn_storage"
          },
          {
            "astId": 7521,
            "contract": "contracts/SecuritizeMarketplace.sol:SecuritizeMarketplace",
            "label": "_positions",
            "offset": 0,
            "slot": "1",
            "type": "t_mapping(t_bytes32,t_uint256)"
          }
        ],
        "numberOfBytes": "64"
      },
      "t_struct(UintSet)8063_storage": {
        "encoding": "inplace",
        "label": "struct EnumerableSet.UintSet",
        "members": [
          {
            "astId": 8062,
            "contract": "contracts/SecuritizeMarketplace.sol:SecuritizeMarketplace",
            "label": "_inner",
            "offset": 0,
            "slot": "0",
            "type": "t_struct(Set)7522_storage"
          }
        ],
        "numberOfBytes": "64"
      },
      "t_uint256": {
        "encoding": "inplace",
        "label": "uint256",
        "numberOfBytes": "32"
      }
    }
  }
}