{
  "address": "0x2e2Cf1f0AaDacF885c5A74AEdD52Fb479aF7589A",
  "abi": [
    {
      "inputs": [],
      "stateMutability": "nonpayable",
      "type": "constructor"
    },
    {
      "inputs": [],
      "name": "ECDSAInvalidSignature",
      "type": "error"
    },
    {
      "inputs": [
        {
          "internalType": "uint256",
          "name": "length",
          "type": "uint256"
        }
      ],
      "name": "ECDSAInvalidSignatureLength",
      "type": "error"
    },
    {
      "inputs": [
        {
          "internalType": "bytes32",
          "name": "s",
          "type": "bytes32"
        }
      ],
      "name": "ECDSAInvalidSignatureS",
      "type": "error"
    },
    {
      "inputs": [
        {
          "internalType": "address",
          "name": "seller",
          "type": "address"
        },
        {
          "internalType": "uint256",
          "name": "amount",
          "type": "uint256"
        }
      ],
      "name": "EarningsTransferError",
      "type": "error"
    },
    {
      "inputs": [
        {
          "internalType": "uint256",
          "name": "listingId",
          "type": "uint256"
        },
        {
          "internalType": "address",
          "name": "token",
          "type": "address"
        }
      ],
      "name": "InactiveItem",
      "type": "error"
    },
    {
      "inputs": [
        {
          "internalType": "address",
          "name": "seller",
          "type": "address"
        },
        {
          "internalType": "address",
          "name": "token",
          "type": "address"
        }
      ],
      "name": "InvalidBuyer",
      "type": "error"
    },
    {
      "inputs": [
        {
          "internalType": "address",
          "name": "token",
          "type": "address"
        },
        {
          "internalType": "uint256",
          "name": "amount",
          "type": "uint256"
        }
      ],
      "name": "InvalidItemAmount",
      "type": "error"
    },
    {
      "inputs": [
        {
          "internalType": "uint256",
          "name": "listingId",
          "type": "uint256"
        }
      ],
      "name": "InvalidItemId",
      "type": "error"
    },
    {
      "inputs": [
        {
          "internalType": "address",
          "name": "token",
          "type": "address"
        },
        {
          "internalType": "uint256",
          "name": "price",
          "type": "uint256"
        }
      ],
      "name": "InvalidItemPrice",
      "type": "error"
    },
    {
      "inputs": [
        {
          "internalType": "uint256",
          "name": "tokensLength",
          "type": "uint256"
        },
        {
          "internalType": "uint256",
          "name": "pricesLength",
          "type": "uint256"
        },
        {
          "internalType": "uint256",
          "name": "amountsLength",
          "type": "uint256"
        }
      ],
      "name": "InvalidListingBatchLengths",
      "type": "error"
    },
    {
      "inputs": [
        {
          "internalType": "address",
          "name": "token",
          "type": "address"
        },
        {
          "internalType": "uint256",
          "name": "price",
          "type": "uint256"
        },
        {
          "internalType": "uint256",
          "name": "valueSent",
          "type": "uint256"
        }
      ],
      "name": "InvalidPayment",
      "type": "error"
    },
    {
      "inputs": [
        {
          "internalType": "uint256",
          "name": "deadline",
          "type": "uint256"
        }
      ],
      "name": "InvalidPreListDeadline",
      "type": "error"
    },
    {
      "inputs": [],
      "name": "InvalidShortString",
      "type": "error"
    },
    {
      "inputs": [
        {
          "internalType": "address",
          "name": "signer",
          "type": "address"
        },
        {
          "internalType": "address",
          "name": "expectedSigner",
          "type": "address"
        }
      ],
      "name": "InvalidSignature",
      "type": "error"
    },
    {
      "inputs": [
        {
          "internalType": "address",
          "name": "token",
          "type": "address"
        }
      ],
      "name": "InvalidToken",
      "type": "error"
    },
    {
      "inputs": [
        {
          "internalType": "address",
          "name": "seller",
          "type": "address"
        }
      ],
      "name": "NoEarningsToWithdraw",
      "type": "error"
    },
    {
      "inputs": [],
      "name": "ReentrancyGuardReentrantCall",
      "type": "error"
    },
    {
      "inputs": [
        {
          "internalType": "string",
          "name": "str",
          "type": "string"
        }
      ],
      "name": "StringTooLong",
      "type": "error"
    },
    {
      "inputs": [
        {
          "internalType": "address",
          "name": "token",
          "type": "address"
        },
        {
          "internalType": "uint256",
          "name": "amount",
          "type": "uint256"
        }
      ],
      "name": "TokenTransferError",
      "type": "error"
    },
    {
      "anonymous": false,
      "inputs": [],
      "name": "EIP712DomainChanged",
      "type": "event"
    },
    {
      "anonymous": false,
      "inputs": [
        {
          "indexed": true,
          "internalType": "address",
          "name": "seller",
          "type": "address"
        },
        {
          "indexed": false,
          "internalType": "uint256",
          "name": "amount",
          "type": "uint256"
        }
      ],
      "name": "FundsWithdrawn",
      "type": "event"
    },
    {
      "anonymous": false,
      "inputs": [
        {
          "indexed": true,
          "internalType": "address",
          "name": "owner",
          "type": "address"
        }
      ],
      "name": "Initialized",
      "type": "event"
    },
    {
      "anonymous": false,
      "inputs": [
        {
          "indexed": true,
          "internalType": "address",
          "name": "token",
          "type": "address"
        },
        {
          "indexed": true,
          "internalType": "address",
          "name": "seller",
          "type": "address"
        },
        {
          "indexed": false,
          "internalType": "uint256",
          "name": "amount",
          "type": "uint256"
        },
        {
          "indexed": false,
          "internalType": "uint256",
          "name": "price",
          "type": "uint256"
        }
      ],
      "name": "ItemListed",
      "type": "event"
    },
    {
      "anonymous": false,
      "inputs": [
        {
          "indexed": true,
          "internalType": "address",
          "name": "buyer",
          "type": "address"
        },
        {
          "indexed": true,
          "internalType": "address",
          "name": "token",
          "type": "address"
        },
        {
          "indexed": false,
          "internalType": "uint256",
          "name": "amount",
          "type": "uint256"
        },
        {
          "indexed": false,
          "internalType": "uint256",
          "name": "price",
          "type": "uint256"
        }
      ],
      "name": "ItemPurchased",
      "type": "event"
    },
    {
      "anonymous": false,
      "inputs": [
        {
          "indexed": true,
          "internalType": "address",
          "name": "seller",
          "type": "address"
        }
      ],
      "name": "SellerRegistered",
      "type": "event"
    },
    {
      "inputs": [],
      "name": "eip712Domain",
      "outputs": [
        {
          "internalType": "bytes1",
          "name": "fields",
          "type": "bytes1"
        },
        {
          "internalType": "string",
          "name": "name",
          "type": "string"
        },
        {
          "internalType": "string",
          "name": "version",
          "type": "string"
        },
        {
          "internalType": "uint256",
          "name": "chainId",
          "type": "uint256"
        },
        {
          "internalType": "address",
          "name": "verifyingContract",
          "type": "address"
        },
        {
          "internalType": "bytes32",
          "name": "salt",
          "type": "bytes32"
        },
        {
          "internalType": "uint256[]",
          "name": "extensions",
          "type": "uint256[]"
        }
      ],
      "stateMutability": "view",
      "type": "function"
    },
    {
      "inputs": [],
      "name": "getDomainSeparator",
      "outputs": [
        {
          "internalType": "bytes32",
          "name": "",
          "type": "bytes32"
        }
      ],
      "stateMutability": "view",
      "type": "function"
    },
    {
      "inputs": [],
      "name": "itemsIds",
      "outputs": [
        {
          "internalType": "uint256[]",
          "name": "",
          "type": "uint256[]"
        }
      ],
      "stateMutability": "view",
      "type": "function"
    },
    {
      "inputs": [
        {
          "internalType": "address[]",
          "name": "tokens",
          "type": "address[]"
        },
        {
          "internalType": "uint256[]",
          "name": "prices",
          "type": "uint256[]"
        },
        {
          "internalType": "uint256[]",
          "name": "amounts",
          "type": "uint256[]"
        }
      ],
      "name": "listBatchItems",
      "outputs": [],
      "stateMutability": "nonpayable",
      "type": "function"
    },
    {
      "inputs": [
        {
          "internalType": "address",
          "name": "token",
          "type": "address"
        },
        {
          "internalType": "uint256",
          "name": "price",
          "type": "uint256"
        },
        {
          "internalType": "uint256",
          "name": "amount",
          "type": "uint256"
        }
      ],
      "name": "listItem",
      "outputs": [],
      "stateMutability": "nonpayable",
      "type": "function"
    },
    {
      "inputs": [
        {
          "internalType": "uint256",
          "name": "listId",
          "type": "uint256"
        }
      ],
      "name": "listedItems",
      "outputs": [
        {
          "internalType": "address",
          "name": "token",
          "type": "address"
        },
        {
          "internalType": "address",
          "name": "seller",
          "type": "address"
        },
        {
          "internalType": "uint256",
          "name": "amount",
          "type": "uint256"
        },
        {
          "internalType": "uint256",
          "name": "price",
          "type": "uint256"
        },
        {
          "internalType": "bool",
          "name": "active",
          "type": "bool"
        }
      ],
      "stateMutability": "view",
      "type": "function"
    },
    {
      "inputs": [
        {
          "internalType": "bytes",
          "name": "signature",
          "type": "bytes"
        },
        {
          "internalType": "address",
          "name": "seller",
          "type": "address"
        },
        {
          "internalType": "address",
          "name": "token",
          "type": "address"
        },
        {
          "internalType": "uint256",
          "name": "amount",
          "type": "uint256"
        },
        {
          "internalType": "uint256",
          "name": "price",
          "type": "uint256"
        },
        {
          "internalType": "uint256",
          "name": "deadline",
          "type": "uint256"
        }
      ],
      "name": "preListItem",
      "outputs": [],
      "stateMutability": "nonpayable",
      "type": "function"
    },
    {
      "inputs": [
        {
          "internalType": "uint256",
          "name": "itemId",
          "type": "uint256"
        }
      ],
      "name": "purchaseItem",
      "outputs": [],
      "stateMutability": "payable",
      "type": "function"
    },
    {
      "inputs": [
        {
          "internalType": "address",
          "name": "user",
          "type": "address"
        }
      ],
      "name": "sellers",
      "outputs": [
        {
          "internalType": "uint256",
          "name": "activeListedItems",
          "type": "uint256"
        },
        {
          "internalType": "uint256",
          "name": "totalSoldItems",
          "type": "uint256"
        },
        {
          "internalType": "uint256",
          "name": "totalListedItems",
          "type": "uint256"
        },
        {
          "internalType": "uint256",
          "name": "pendingWithdrawals",
          "type": "uint256"
        },
        {
          "internalType": "uint256",
          "name": "balance",
          "type": "uint256"
        },
        {
          "internalType": "uint256",
          "name": "signedNonce",
          "type": "uint256"
        },
        {
          "internalType": "bool",
          "name": "active",
          "type": "bool"
        }
      ],
      "stateMutability": "view",
      "type": "function"
    },
    {
      "inputs": [],
      "name": "withdrawFunds",
      "outputs": [],
      "stateMutability": "nonpayable",
      "type": "function"
    }
  ],
  "transactionHash": "0x62e809a67b483fde3e3b8aa801e9970f9554fcfb5e2857f849b74c80f5bd5b9b",
  "args": [],
  "numDeployments": 1,
  "solcInputHash": "7a61f8c1d0da8349515fca3f98bbff9c",
  "bytecode": "0x61016060405234801561001157600080fd5b506040518060400160405280601581526020017f53656375726974697a654d61726b6574706c61636500000000000000000000008152506040518060400160405280600181526020017f3100000000000000000000000000000000000000000000000000000000000000815250600160008190555061009a60018361018560201b90919060201c565b61012081815250506100b660028261018560201b90919060201c565b6101408181525050818051906020012060e08181525050808051906020012061010081815250504660a081815250506100f36101d560201b60201c565b608081815250503073ffffffffffffffffffffffffffffffffffffffff1660c08173ffffffffffffffffffffffffffffffffffffffff1681525050505061013e61023060201b60201c565b73ffffffffffffffffffffffffffffffffffffffff167f908408e307fc569b417f6cbec5d5a06f44a0a505ac0479b47d421a4b2fd6a1e660405160405180910390a26107c6565b60006020835110156101a7576101a08361023860201b60201c565b90506101cf565b826101b7836102a060201b60201c565b60000190816101c691906104fa565b5060ff60001b90505b92915050565b60007f8b73c3c69bb8fe3d512ecc4cf759cc79239f7b179b0ffacaa9a75d522b39400f60e051610100514630604051602001610215959493929190610635565b60405160208183030381529060405280519060200120905090565b600033905090565b600080829050601f8151111561028557826040517f305a27a900000000000000000000000000000000000000000000000000000000815260040161027c919061070d565b60405180910390fd5b8051816102919061075f565b60001c1760001b915050919050565b6000819050919050565b600081519050919050565b7f4e487b7100000000000000000000000000000000000000000000000000000000600052604160045260246000fd5b7f4e487b7100000000000000000000000000000000000000000000000000000000600052602260045260246000fd5b6000600282049050600182168061032b57607f821691505b60208210810361033e5761033d6102e4565b5b50919050565b60008190508160005260206000209050919050565b60006020601f8301049050919050565b600082821b905092915050565b6000600883026103a67fffffffffffffffffffffffffffffffffffffffffffffffffffffffffffffffff82610369565b6103b08683610369565b95508019841693508086168417925050509392505050565b6000819050919050565b6000819050919050565b60006103f76103f26103ed846103c8565b6103d2565b6103c8565b9050919050565b6000819050919050565b610411836103dc565b61042561041d826103fe565b848454610376565b825550505050565b600090565b61043a61042d565b610445818484610408565b505050565b5b818110156104695761045e600082610432565b60018101905061044b565b5050565b601f8211156104ae5761047f81610344565b61048884610359565b81016020851015610497578190505b6104ab6104a385610359565b83018261044a565b50505b505050565b600082821c905092915050565b60006104d1600019846008026104b3565b1980831691505092915050565b60006104ea83836104c0565b9150826002028217905092915050565b610503826102aa565b67ffffffffffffffff81111561051c5761051b6102b5565b5b6105268254610313565b61053182828561046d565b600060209050601f8311600181146105645760008415610552578287015190505b61055c85826104de565b8655506105c4565b601f19841661057286610344565b60005b8281101561059a57848901518255600182019150602085019450602081019050610575565b868310156105b757848901516105b3601f8916826104c0565b8355505b6001600288020188555050505b505050505050565b6000819050919050565b6105df816105cc565b82525050565b6105ee816103c8565b82525050565b600073ffffffffffffffffffffffffffffffffffffffff82169050919050565b600061061f826105f4565b9050919050565b61062f81610614565b82525050565b600060a08201905061064a60008301886105d6565b61065760208301876105d6565b61066460408301866105d6565b61067160608301856105e5565b61067e6080830184610626565b9695505050505050565b600082825260208201905092915050565b60005b838110156106b757808201518184015260208101905061069c565b60008484015250505050565b6000601f19601f8301169050919050565b60006106df826102aa565b6106e98185610688565b93506106f9818560208601610699565b610702816106c3565b840191505092915050565b6000602082019050818103600083015261072781846106d4565b905092915050565b600081519050919050565b6000819050602082019050919050565b600061075682516105cc565b80915050919050565b600061076a8261072f565b826107748461073a565b905061077f8161074a565b925060208210156107bf576107ba7fffffffffffffffffffffffffffffffffffffffffffffffffffffffffffffffff83602003600802610369565b831692505b5050919050565b60805160a05160c05160e05161010051610120516101405161382c6108206000396000611d1101526000611cd6015260006125e3015260006125c20152600061214d015260006121a3015260006121cc015261382c6000f3fe6080604052600436106100915760003560e01c806389bfd38f1161005957806389bfd38f146101755780639cf135721461019e578063d2347061146101c7578063d38ea5bf14610208578063ed24911d1461022457610091565b806312a06b501461009657806324600fc3146100bf5780636d47ab72146100d65780637f37fb8e1461011957806384b0196e14610144575b600080fd5b3480156100a257600080fd5b506100bd60048036038101906100b89190612cd3565b61024f565b005b3480156100cb57600080fd5b506100d461091b565b005b3480156100e257600080fd5b506100fd60048036038101906100f89190612d7a565b610b25565b6040516101109796959493929190612dd1565b60405180910390f35b34801561012557600080fd5b5061012e610b74565b60405161013b9190612efe565b60405180910390f35b34801561015057600080fd5b50610159610b85565b60405161016c9796959493929190613002565b60405180910390f35b34801561018157600080fd5b5061019c60048036038101906101979190613086565b610c2f565b005b3480156101aa57600080fd5b506101c560048036038101906101c09190613134565b611133565b005b3480156101d357600080fd5b506101ee60048036038101906101e991906131e3565b6116fa565b6040516101ff959493929190613210565b60405180910390f35b610222600480360381019061021d91906131e3565b61177d565b005b34801561023057600080fd5b50610239611b8f565b6040516102469190613263565b60405180910390f35b8151835114158061026257508051835114155b156102ab578251825182516040517fd117e3910000000000000000000000000000000000000000000000000000000081526004016102a29392919061327e565b60405180910390fd5b60005b83518110156106cb576103108482815181106102cd576102cc6132b5565b5b60200260200101518483815181106102e8576102e76132b5565b5b6020026020010151848481518110610303576103026132b5565b5b6020026020010151611b9e565b6000848281518110610325576103246132b5565b5b602002602001015173ffffffffffffffffffffffffffffffffffffffff166323b872dd610350611c3a565b30868681518110610364576103636132b5565b5b60200260200101516040518463ffffffff1660e01b815260040161038a939291906132e4565b6020604051808303816000875af11580156103a9573d6000803e3d6000fd5b505050506040513d601f19601f820116820180604052508101906103cd9190613347565b905080610447578482815181106103e7576103e66132b5565b5b6020026020010151838381518110610402576104016132b5565b5b60200260200101516040517f9af9569000000000000000000000000000000000000000000000000000000000815260040161043e929190613374565b60405180910390fd5b60006040518060a00160405280878581518110610467576104666132b5565b5b602002602001015173ffffffffffffffffffffffffffffffffffffffff168152602001610492611c3a565b73ffffffffffffffffffffffffffffffffffffffff1681526020018585815181106104c0576104bf6132b5565b5b602002602001015181526020018685815181106104e0576104df6132b5565b5b602002602001015181526020016001151581525090508060036000600554815260200190815260200160002060008201518160000160006101000a81548173ffffffffffffffffffffffffffffffffffffffff021916908373ffffffffffffffffffffffffffffffffffffffff16021790555060208201518160010160006101000a81548173ffffffffffffffffffffffffffffffffffffffff021916908373ffffffffffffffffffffffffffffffffffffffff160217905550604082015181600201556060820151816003015560808201518160040160006101000a81548160ff0219169083151502179055509050506105e76005546006611c4290919063ffffffff16565b50600560008154809291906105fb906133cc565b9190505550610608611c3a565b73ffffffffffffffffffffffffffffffffffffffff16868481518110610631576106306132b5565b5b602002602001015173ffffffffffffffffffffffffffffffffffffffff167fd547e933094f12a9159076970143ebe73234e64480317844b0dcb36117116de4868681518110610683576106826132b5565b5b602002602001015188878151811061069e5761069d6132b5565b5b60200260200101516040516106b4929190613414565b60405180910390a3505080806001019150506102ae565b50600460006106d8611c3a565b73ffffffffffffffffffffffffffffffffffffffff1673ffffffffffffffffffffffffffffffffffffffff16815260200190815260200160002060060160009054906101000a900460ff16610857576040518060e00160405280845181526020018451815260200184518152602001600081526020016000815260200160008152602001600115158152506004600061076f611c3a565b73ffffffffffffffffffffffffffffffffffffffff1673ffffffffffffffffffffffffffffffffffffffff168152602001908152602001600020600082015181600001556020820151816001015560408201518160020155606082015181600301556080820151816004015560a0820151816005015560c08201518160060160006101000a81548160ff021916908315150217905550905050610810611c3a565b73ffffffffffffffffffffffffffffffffffffffff167f4d97d287a8f631378031b05cb24c876085261ddaa7b8f584477370ef473fbb3d60405160405180910390a2610916565b60046000610863611c3a565b73ffffffffffffffffffffffffffffffffffffffff1673ffffffffffffffffffffffffffffffffffffffff16815260200190815260200160002060000160008154809291906108b1906133cc565b9190505550600460006108c2611c3a565b73ffffffffffffffffffffffffffffffffffffffff1673ffffffffffffffffffffffffffffffffffffffff1681526020019081526020016000206002016000815480929190610910906133cc565b91905055505b505050565b610923611c5c565b600060046000610931611c3a565b73ffffffffffffffffffffffffffffffffffffffff1673ffffffffffffffffffffffffffffffffffffffff16815260200190815260200160002060030154036109b85761097c611c3a565b6040517f3744c7af0000000000000000000000000000000000000000000000000000000081526004016109af919061343d565b60405180910390fd5b6000600460006109c6611c3a565b73ffffffffffffffffffffffffffffffffffffffff1673ffffffffffffffffffffffffffffffffffffffff1681526020019081526020016000206003015490506000610a10611c3a565b73ffffffffffffffffffffffffffffffffffffffff1682604051610a3390613489565b60006040518083038185875af1925050503d8060008114610a70576040519150601f19603f3d011682016040523d82523d6000602084013e610a75565b606091505b5050905080610ac457610a86611c3a565b826040517f19e44218000000000000000000000000000000000000000000000000000000008152600401610abb929190613374565b60405180910390fd5b610acc611c3a565b73ffffffffffffffffffffffffffffffffffffffff167feaff4b37086828766ad3268786972c0cd24259d4c87a80f9d3963a3c3d999b0d83604051610b11919061349e565b60405180910390a25050610b23611ca2565b565b60046020528060005260406000206000915090508060000154908060010154908060020154908060030154908060040154908060050154908060060160009054906101000a900460ff16905087565b6060610b806006611cac565b905090565b600060608060008060006060610b99611ccd565b610ba1611d08565b46306000801b600067ffffffffffffffff811115610bc257610bc1612a39565b5b604051908082528060200260200182016040528015610bf05781602001602082028036833780820191505090505b507f0f00000000000000000000000000000000000000000000000000000000000000959493929190965096509650965096509650965090919293949596565b610c3a838383611b9e565b60008373ffffffffffffffffffffffffffffffffffffffff166323b872dd610c60611c3a565b30856040518463ffffffff1660e01b8152600401610c80939291906132e4565b6020604051808303816000875af1158015610c9f573d6000803e3d6000fd5b505050506040513d601f19601f82011682018060405250810190610cc39190613347565b905080610d095783826040517f9af95690000000000000000000000000000000000000000000000000000000008152600401610d00929190613374565b60405180910390fd5b60006040518060a001604052808673ffffffffffffffffffffffffffffffffffffffff168152602001610d3a611c3a565b73ffffffffffffffffffffffffffffffffffffffff1681526020018481526020018581526020016001151581525090508060036000600554815260200190815260200160002060008201518160000160006101000a81548173ffffffffffffffffffffffffffffffffffffffff021916908373ffffffffffffffffffffffffffffffffffffffff16021790555060208201518160010160006101000a81548173ffffffffffffffffffffffffffffffffffffffff021916908373ffffffffffffffffffffffffffffffffffffffff160217905550604082015181600201556060820151816003015560808201518160040160006101000a81548160ff021916908315150217905550905050610e5b6005546006611c4290919063ffffffff16565b5060056000815480929190610e6f906133cc565b919050555060046000610e80611c3a565b73ffffffffffffffffffffffffffffffffffffffff1673ffffffffffffffffffffffffffffffffffffffff16815260200190815260200160002060060160009054906101000a900460ff16610fff576040518060e001604052806001815260200160008152602001600181526020016000815260200160008152602001600081526020016001151581525060046000610f17611c3a565b73ffffffffffffffffffffffffffffffffffffffff1673ffffffffffffffffffffffffffffffffffffffff168152602001908152602001600020600082015181600001556020820151816001015560408201518160020155606082015181600301556080820151816004015560a0820151816005015560c08201518160060160006101000a81548160ff021916908315150217905550905050610fb8611c3a565b73ffffffffffffffffffffffffffffffffffffffff167f4d97d287a8f631378031b05cb24c876085261ddaa7b8f584477370ef473fbb3d60405160405180910390a26110be565b6004600061100b611c3a565b73ffffffffffffffffffffffffffffffffffffffff1673ffffffffffffffffffffffffffffffffffffffff1681526020019081526020016000206000016000815480929190611059906133cc565b91905055506004600061106a611c3a565b73ffffffffffffffffffffffffffffffffffffffff1673ffffffffffffffffffffffffffffffffffffffff16815260200190815260200160002060020160008154809291906110b8906133cc565b91905055505b6110c6611c3a565b73ffffffffffffffffffffffffffffffffffffffff168573ffffffffffffffffffffffffffffffffffffffff167fd547e933094f12a9159076970143ebe73234e64480317844b0dcb36117116de48587604051611124929190613414565b60405180910390a35050505050565b61113e848385611b9e565b600460008673ffffffffffffffffffffffffffffffffffffffff1673ffffffffffffffffffffffffffffffffffffffff16815260200190815260200160002060060160009054906101000a900460ff166112b0576040518060e0016040528060008152602001600081526020016000815260200160008152602001600081526020016000815260200160011515815250600460008773ffffffffffffffffffffffffffffffffffffffff1673ffffffffffffffffffffffffffffffffffffffff168152602001908152602001600020600082015181600001556020820151816001015560408201518160020155606082015181600301556080820151816004015560a0820151816005015560c08201518160060160006101000a81548160ff0219169083151502179055509050508473ffffffffffffffffffffffffffffffffffffffff167f4d97d287a8f631378031b05cb24c876085261ddaa7b8f584477370ef473fbb3d60405160405180910390a25b428110156112f557806040517f337bd4ff0000000000000000000000000000000000000000000000000000000081526004016112ec919061349e565b60405180910390fd5b6000600460008773ffffffffffffffffffffffffffffffffffffffff1673ffffffffffffffffffffffffffffffffffffffff16815260200190815260200160002060050154905061134c8686868685878e8e611d43565b600460008773ffffffffffffffffffffffffffffffffffffffff1673ffffffffffffffffffffffffffffffffffffffff168152602001908152602001600020600501600081548092919061139f906133cc565b919050555060008573ffffffffffffffffffffffffffffffffffffffff166323b872dd6113ca611c3a565b30886040518463ffffffff1660e01b81526004016113ea939291906132e4565b6020604051808303816000875af1158015611409573d6000803e3d6000fd5b505050506040513d601f19601f8201168201806040525081019061142d9190613347565b9050806114735785856040517f9af9569000000000000000000000000000000000000000000000000000000000815260040161146a929190613374565b60405180910390fd5b60006040518060a001604052808873ffffffffffffffffffffffffffffffffffffffff1681526020018973ffffffffffffffffffffffffffffffffffffffff1681526020018781526020018681526020016001151581525090508060036000600554815260200190815260200160002060008201518160000160006101000a81548173ffffffffffffffffffffffffffffffffffffffff021916908373ffffffffffffffffffffffffffffffffffffffff16021790555060208201518160010160006101000a81548173ffffffffffffffffffffffffffffffffffffffff021916908373ffffffffffffffffffffffffffffffffffffffff160217905550604082015181600201556060820151816003015560808201518160040160006101000a81548160ff0219169083151502179055509050506115be6005546006611c4290919063ffffffff16565b50600560008154809291906115d2906133cc565b9190505550600460008973ffffffffffffffffffffffffffffffffffffffff1673ffffffffffffffffffffffffffffffffffffffff168152602001908152602001600020600001600081548092919061162a906133cc565b9190505550600460008973ffffffffffffffffffffffffffffffffffffffff1673ffffffffffffffffffffffffffffffffffffffff1681526020019081526020016000206002016000815480929190611682906133cc565b91905055508773ffffffffffffffffffffffffffffffffffffffff168773ffffffffffffffffffffffffffffffffffffffff167fd547e933094f12a9159076970143ebe73234e64480317844b0dcb36117116de488886040516116e6929190613414565b60405180910390a350505050505050505050565b60036020528060005260406000206000915090508060000160009054906101000a900473ffffffffffffffffffffffffffffffffffffffff16908060010160009054906101000a900473ffffffffffffffffffffffffffffffffffffffff16908060020154908060030154908060040160009054906101000a900460ff16905085565b611785611c5c565b611796611790611c3a565b82611e78565b6000600360008381526020019081526020016000206040518060a00160405290816000820160009054906101000a900473ffffffffffffffffffffffffffffffffffffffff1673ffffffffffffffffffffffffffffffffffffffff1673ffffffffffffffffffffffffffffffffffffffff1681526020016001820160009054906101000a900473ffffffffffffffffffffffffffffffffffffffff1673ffffffffffffffffffffffffffffffffffffffff1673ffffffffffffffffffffffffffffffffffffffff16815260200160028201548152602001600382015481526020016004820160009054906101000a900460ff16151515158152505090506000816000015173ffffffffffffffffffffffffffffffffffffffff1663a9059cbb6118bd611c3a565b84604001516040518363ffffffff1660e01b81526004016118df929190613374565b6020604051808303816000875af11580156118fe573d6000803e3d6000fd5b505050506040513d601f19601f820116820180604052508101906119229190613347565b90508061197057816000015182604001516040517f9af95690000000000000000000000000000000000000000000000000000000008152600401611967929190613374565b60405180910390fd5b60046000836020015173ffffffffffffffffffffffffffffffffffffffff1673ffffffffffffffffffffffffffffffffffffffff16815260200190815260200160002060000160008154809291906119c7906134b9565b919050555060046000836020015173ffffffffffffffffffffffffffffffffffffffff1673ffffffffffffffffffffffffffffffffffffffff1681526020019081526020016000206001016000815480929190611a23906133cc565b91905055503460046000846020015173ffffffffffffffffffffffffffffffffffffffff1673ffffffffffffffffffffffffffffffffffffffff1681526020019081526020016000206004016000828254611a7e91906134e2565b925050819055503460046000846020015173ffffffffffffffffffffffffffffffffffffffff1673ffffffffffffffffffffffffffffffffffffffff1681526020019081526020016000206003016000828254611adb91906134e2565b925050819055506000826080019015159081151581525050611b0783600661212f90919063ffffffff16565b50816000015173ffffffffffffffffffffffffffffffffffffffff16611b2b611c3a565b73ffffffffffffffffffffffffffffffffffffffff167f53d5014fa27fa078ecec13b4311f8520b2192980af8b38cf8e870ed26576046484604001518560600151604051611b7a929190613414565b60405180910390a35050611b8c611ca2565b50565b6000611b99612149565b905090565b611ba783612200565b60008203611bee5782826040517fb5ea6668000000000000000000000000000000000000000000000000000000008152600401611be5929190613374565b60405180910390fd5b60008103611c355782816040517f88cb8e87000000000000000000000000000000000000000000000000000000008152600401611c2c929190613374565b60405180910390fd5b505050565b600033905090565b6000611c54836000018360001b6122ad565b905092915050565b600260005403611c98576040517f3ee5aeb500000000000000000000000000000000000000000000000000000000815260040160405180910390fd5b6002600081905550565b6001600081905550565b60606000611cbc8360000161231d565b905060608190508092505050919050565b6060611d0360017f000000000000000000000000000000000000000000000000000000000000000061237990919063ffffffff16565b905090565b6060611d3e60027f000000000000000000000000000000000000000000000000000000000000000061237990919063ffffffff16565b905090565b60007fb2104cc5af2791891ad6b9aeae332219cd3cb9c983b1868f62bf09f6ead4b351898989898989604051602001611d829796959493929190613516565b6040516020818303038152906040528051906020012090506000611da582612429565b90506000611df78286868080601f016020809104026020016040519081016040528093929190818152602001838380828437600081840152601f19601f82011690508083019250505050505050612443565b90508a73ffffffffffffffffffffffffffffffffffffffff168173ffffffffffffffffffffffffffffffffffffffff1614611e6b57808b6040517f42d750dc000000000000000000000000000000000000000000000000000000008152600401611e62929190613585565b60405180910390fd5b5050505050505050505050565b611e8c81600661246f90919063ffffffff16565b611ecd57806040517f26beea04000000000000000000000000000000000000000000000000000000008152600401611ec4919061349e565b60405180910390fd5b6005548110611f1357806040517f26beea04000000000000000000000000000000000000000000000000000000008152600401611f0a919061349e565b60405180910390fd5b6000600360008381526020019081526020016000206040518060a00160405290816000820160009054906101000a900473ffffffffffffffffffffffffffffffffffffffff1673ffffffffffffffffffffffffffffffffffffffff1673ffffffffffffffffffffffffffffffffffffffff1681526020016001820160009054906101000a900473ffffffffffffffffffffffffffffffffffffffff1673ffffffffffffffffffffffffffffffffffffffff1673ffffffffffffffffffffffffffffffffffffffff16815260200160028201548152602001600382015481526020016004820160009054906101000a900460ff1615151515815250509050806080015161205c578181600001516040517fbbbb4b520000000000000000000000000000000000000000000000000000000081526004016120539291906135ae565b60405180910390fd5b806060015134146120b05780600001518160600151346040517ffc746cd30000000000000000000000000000000000000000000000000000000081526004016120a7939291906135d7565b60405180910390fd5b8273ffffffffffffffffffffffffffffffffffffffff16816020015173ffffffffffffffffffffffffffffffffffffffff160361212a578281600001516040517fa1267b1c000000000000000000000000000000000000000000000000000000008152600401612121929190613585565b60405180910390fd5b505050565b6000612141836000018360001b612489565b905092915050565b60007f000000000000000000000000000000000000000000000000000000000000000073ffffffffffffffffffffffffffffffffffffffff163073ffffffffffffffffffffffffffffffffffffffff161480156121c557507f000000000000000000000000000000000000000000000000000000000000000046145b156121f2577f000000000000000000000000000000000000000000000000000000000000000090506121fd565b6121fa61259d565b90505b90565b8073ffffffffffffffffffffffffffffffffffffffff166318160ddd6040518163ffffffff1660e01b8152600401602060405180830381865afa92505050801561226857506040513d601f19601f820116820180604052508101906122659190613623565b60015b6122a957806040517f961c9a4f0000000000000000000000000000000000000000000000000000000081526004016122a0919061343d565b60405180910390fd5b5050565b60006122b98383612633565b612312578260000182908060018154018082558091505060019003906000526020600020016000909190919091505582600001805490508360010160008481526020019081526020016000208190555060019050612317565b600090505b92915050565b60608160000180548060200260200160405190810160405280929190818152602001828054801561236d57602002820191906000526020600020905b815481526020019060010190808311612359575b50505050509050919050565b606060ff60001b83146123965761238f83612656565b9050612423565b8180546123a29061367f565b80601f01602080910402602001604051908101604052809291908181526020018280546123ce9061367f565b801561241b5780601f106123f05761010080835404028352916020019161241b565b820191906000526020600020905b8154815290600101906020018083116123fe57829003601f168201915b505050505090505b92915050565b600061243c612436612149565b836126ca565b9050919050565b600080600080612453868661270b565b9250925092506124638282612767565b82935050505092915050565b6000612481836000018360001b612633565b905092915050565b600080836001016000848152602001908152602001600020549050600081146125915760006001826124bb91906136b0565b90506000600186600001805490506124d391906136b0565b90508082146125425760008660000182815481106124f4576124f36132b5565b5b9060005260206000200154905080876000018481548110612518576125176132b5565b5b90600052602060002001819055508387600101600083815260200190815260200160002081905550505b85600001805480612556576125556136e4565b5b600190038181906000526020600020016000905590558560010160008681526020019081526020016000206000905560019350505050612597565b60009150505b92915050565b60007f8b73c3c69bb8fe3d512ecc4cf759cc79239f7b179b0ffacaa9a75d522b39400f7f00000000000000000000000000000000000000000000000000000000000000007f00000000000000000000000000000000000000000000000000000000000000004630604051602001612618959493929190613713565b60405160208183030381529060405280519060200120905090565b600080836001016000848152602001908152602001600020541415905092915050565b60606000612663836128cb565b90506000602067ffffffffffffffff81111561268257612681612a39565b5b6040519080825280601f01601f1916602001820160405280156126b45781602001600182028036833780820191505090505b5090508181528360208201528092505050919050565b60006040517f190100000000000000000000000000000000000000000000000000000000000081528360028201528260228201526042812091505092915050565b600080600060418451036127505760008060006020870151925060408701519150606087015160001a90506127428882858561291b565b955095509550505050612760565b60006002855160001b9250925092505b9250925092565b6000600381111561277b5761277a613766565b5b82600381111561278e5761278d613766565b5b03156128c757600160038111156127a8576127a7613766565b5b8260038111156127bb576127ba613766565b5b036127f2576040517ff645eedf00000000000000000000000000000000000000000000000000000000815260040160405180910390fd5b6002600381111561280657612805613766565b5b82600381111561281957612818613766565b5b0361285e578060001c6040517ffce698f7000000000000000000000000000000000000000000000000000000008152600401612855919061349e565b60405180910390fd5b60038081111561287157612870613766565b5b82600381111561288457612883613766565b5b036128c657806040517fd78bce0c0000000000000000000000000000000000000000000000000000000081526004016128bd9190613263565b60405180910390fd5b5b5050565b60008060ff8360001c169050601f811115612912576040517fb3512b0c00000000000000000000000000000000000000000000000000000000815260040160405180910390fd5b80915050919050565b60008060007f7fffffffffffffffffffffffffffffff5d576e7357a4501ddfe92f46681b20a08460001c111561295b576000600385925092509250612a05565b60006001888888886040516000815260200160405260405161298094939291906137b1565b6020604051602081039080840390855afa1580156129a2573d6000803e3d6000fd5b505050602060405103519050600073ffffffffffffffffffffffffffffffffffffffff168173ffffffffffffffffffffffffffffffffffffffff16036129f657600060016000801b93509350935050612a05565b8060008060001b935093509350505b9450945094915050565b6000604051905090565b600080fd5b600080fd5b600080fd5b6000601f19601f8301169050919050565b7f4e487b7100000000000000000000000000000000000000000000000000000000600052604160045260246000fd5b612a7182612a28565b810181811067ffffffffffffffff82111715612a9057612a8f612a39565b5b80604052505050565b6000612aa3612a0f565b9050612aaf8282612a68565b919050565b600067ffffffffffffffff821115612acf57612ace612a39565b5b602082029050602081019050919050565b600080fd5b600073ffffffffffffffffffffffffffffffffffffffff82169050919050565b6000612b1082612ae5565b9050919050565b612b2081612b05565b8114612b2b57600080fd5b50565b600081359050612b3d81612b17565b92915050565b6000612b56612b5184612ab4565b612a99565b90508083825260208201905060208402830185811115612b7957612b78612ae0565b5b835b81811015612ba25780612b8e8882612b2e565b845260208401935050602081019050612b7b565b5050509392505050565b600082601f830112612bc157612bc0612a23565b5b8135612bd1848260208601612b43565b91505092915050565b600067ffffffffffffffff821115612bf557612bf4612a39565b5b602082029050602081019050919050565b6000819050919050565b612c1981612c06565b8114612c2457600080fd5b50565b600081359050612c3681612c10565b92915050565b6000612c4f612c4a84612bda565b612a99565b90508083825260208201905060208402830185811115612c7257612c71612ae0565b5b835b81811015612c9b5780612c878882612c27565b845260208401935050602081019050612c74565b5050509392505050565b600082601f830112612cba57612cb9612a23565b5b8135612cca848260208601612c3c565b91505092915050565b600080600060608486031215612cec57612ceb612a19565b5b600084013567ffffffffffffffff811115612d0a57612d09612a1e565b5b612d1686828701612bac565b935050602084013567ffffffffffffffff811115612d3757612d36612a1e565b5b612d4386828701612ca5565b925050604084013567ffffffffffffffff811115612d6457612d63612a1e565b5b612d7086828701612ca5565b9150509250925092565b600060208284031215612d9057612d8f612a19565b5b6000612d9e84828501612b2e565b91505092915050565b612db081612c06565b82525050565b60008115159050919050565b612dcb81612db6565b82525050565b600060e082019050612de6600083018a612da7565b612df36020830189612da7565b612e006040830188612da7565b612e0d6060830187612da7565b612e1a6080830186612da7565b612e2760a0830185612da7565b612e3460c0830184612dc2565b98975050505050505050565b600081519050919050565b600082825260208201905092915050565b6000819050602082019050919050565b612e7581612c06565b82525050565b6000612e878383612e6c565b60208301905092915050565b6000602082019050919050565b6000612eab82612e40565b612eb58185612e4b565b9350612ec083612e5c565b8060005b83811015612ef1578151612ed88882612e7b565b9750612ee383612e93565b925050600181019050612ec4565b5085935050505092915050565b60006020820190508181036000830152612f188184612ea0565b905092915050565b60007fff0000000000000000000000000000000000000000000000000000000000000082169050919050565b612f5581612f20565b82525050565b600081519050919050565b600082825260208201905092915050565b60005b83811015612f95578082015181840152602081019050612f7a565b60008484015250505050565b6000612fac82612f5b565b612fb68185612f66565b9350612fc6818560208601612f77565b612fcf81612a28565b840191505092915050565b612fe381612b05565b82525050565b6000819050919050565b612ffc81612fe9565b82525050565b600060e082019050613017600083018a612f4c565b81810360208301526130298189612fa1565b9050818103604083015261303d8188612fa1565b905061304c6060830187612da7565b6130596080830186612fda565b61306660a0830185612ff3565b81810360c08301526130788184612ea0565b905098975050505050505050565b60008060006060848603121561309f5761309e612a19565b5b60006130ad86828701612b2e565b93505060206130be86828701612c27565b92505060406130cf86828701612c27565b9150509250925092565b600080fd5b60008083601f8401126130f4576130f3612a23565b5b8235905067ffffffffffffffff811115613111576131106130d9565b5b60208301915083600182028301111561312d5761312c612ae0565b5b9250929050565b600080600080600080600060c0888a03121561315357613152612a19565b5b600088013567ffffffffffffffff81111561317157613170612a1e565b5b61317d8a828b016130de565b975097505060206131908a828b01612b2e565b95505060406131a18a828b01612b2e565b94505060606131b28a828b01612c27565b93505060806131c38a828b01612c27565b92505060a06131d48a828b01612c27565b91505092959891949750929550565b6000602082840312156131f9576131f8612a19565b5b600061320784828501612c27565b91505092915050565b600060a0820190506132256000830188612fda565b6132326020830187612fda565b61323f6040830186612da7565b61324c6060830185612da7565b6132596080830184612dc2565b9695505050505050565b60006020820190506132786000830184612ff3565b92915050565b60006060820190506132936000830186612da7565b6132a06020830185612da7565b6132ad6040830184612da7565b949350505050565b7f4e487b7100000000000000000000000000000000000000000000000000000000600052603260045260246000fd5b60006060820190506132f96000830186612fda565b6133066020830185612fda565b6133136040830184612da7565b949350505050565b61332481612db6565b811461332f57600080fd5b50565b6000815190506133418161331b565b92915050565b60006020828403121561335d5761335c612a19565b5b600061336b84828501613332565b91505092915050565b60006040820190506133896000830185612fda565b6133966020830184612da7565b9392505050565b7f4e487b7100000000000000000000000000000000000000000000000000000000600052601160045260246000fd5b60006133d782612c06565b91507fffffffffffffffffffffffffffffffffffffffffffffffffffffffffffffffff82036134095761340861339d565b5b600182019050919050565b60006040820190506134296000830185612da7565b6134366020830184612da7565b9392505050565b60006020820190506134526000830184612fda565b92915050565b600081905092915050565b50565b6000613473600083613458565b915061347e82613463565b600082019050919050565b600061349482613466565b9150819050919050565b60006020820190506134b36000830184612da7565b92915050565b60006134c482612c06565b9150600082036134d7576134d661339d565b5b600182039050919050565b60006134ed82612c06565b91506134f883612c06565b92508282019050808211156135105761350f61339d565b5b92915050565b600060e08201905061352b600083018a612ff3565b6135386020830189612fda565b6135456040830188612fda565b6135526060830187612da7565b61355f6080830186612da7565b61356c60a0830185612da7565b61357960c0830184612da7565b98975050505050505050565b600060408201905061359a6000830185612fda565b6135a76020830184612fda565b9392505050565b60006040820190506135c36000830185612da7565b6135d06020830184612fda565b9392505050565b60006060820190506135ec6000830186612fda565b6135f96020830185612da7565b6136066040830184612da7565b949350505050565b60008151905061361d81612c10565b92915050565b60006020828403121561363957613638612a19565b5b60006136478482850161360e565b91505092915050565b7f4e487b7100000000000000000000000000000000000000000000000000000000600052602260045260246000fd5b6000600282049050600182168061369757607f821691505b6020821081036136aa576136a9613650565b5b50919050565b60006136bb82612c06565b91506136c683612c06565b92508282039050818111156136de576136dd61339d565b5b92915050565b7f4e487b7100000000000000000000000000000000000000000000000000000000600052603160045260246000fd5b600060a0820190506137286000830188612ff3565b6137356020830187612ff3565b6137426040830186612ff3565b61374f6060830185612da7565b61375c6080830184612fda565b9695505050505050565b7f4e487b7100000000000000000000000000000000000000000000000000000000600052602160045260246000fd5b600060ff82169050919050565b6137ab81613795565b82525050565b60006080820190506137c66000830187612ff3565b6137d360208301866137a2565b6137e06040830185612ff3565b6137ed6060830184612ff3565b9594505050505056fea26469706673582212204548d6770268fbf959f4198dc80bf35cf2e8edba03f943a8057ca86f4480a97a64736f6c634300081c0033",
  "devdoc": {
    "errors": {
      "ECDSAInvalidSignature()": [
        {
          "details": "The signature derives the `address(0)`."
        }
      ],
      "ECDSAInvalidSignatureLength(uint256)": [
        {
          "details": "The signature has an invalid length."
        }
      ],
      "ECDSAInvalidSignatureS(bytes32)": [
        {
          "details": "The signature has an S value that is in the upper half order."
        }
      ],
      "ReentrancyGuardReentrantCall()": [
        {
          "details": "Unauthorized reentrant call."
        }
      ]
    },
    "events": {
      "EIP712DomainChanged()": {
        "details": "MAY be emitted to signal that the domain could have changed."
      }
    },
    "kind": "dev",
    "methods": {
      "eip712Domain()": {
        "details": "returns the fields and values that describe the domain separator used by this contract for EIP-712 signature."
      },
      "itemsIds()": {
        "details": "Get the current list IDIt will only return active listed items.",
        "returns": {
          "_0": "The current list IDs."
        }
      },
      "listBatchItems(address[],uint256[],uint256[])": {
        "details": "List multiple items for sale",
        "params": {
          "amounts": "The amounts of tokens to list",
          "prices": "The prices of the items in WEI",
          "tokens": "The addresses of the ERC20 tokens to be listed"
        }
      },
      "listItem(address,uint256,uint256)": {
        "details": "List an item for sale",
        "params": {
          "amount": "The amount of tokens to list",
          "price": "The price of the item in WEI",
          "token": "The address of the ERC20 token to be listed"
        }
      },
      "preListItem(bytes,address,address,uint256,uint256,uint256)": {
        "details": "Pre-list an item for sale",
        "params": {
          "amount": "The amount of tokens to list",
          "deadline": "The deadline of the pre-listing",
          "price": "The price of the item in WEI",
          "seller": "The address of the seller",
          "signature": "The signature of the seller",
          "token": "The address of the ERC20 token to be listed"
        }
      },
      "purchaseItem(uint256)": {
        "details": "Purchase an item",
        "params": {
          "itemId": "The ID of the item to be purchased"
        }
      },
      "withdrawFunds()": {
        "details": "Withdraw funds from the marketplace"
      }
    },
    "version": 1
  },
  "userdoc": {
    "kind": "user",
    "methods": {},
    "version": 1
  },
  "storageLayout": {
    "storage": [
      {
        "astId": 1387,
        "contract": "contracts/SecuritizeMarketplace.sol:SecuritizeMarketplace",
        "label": "_status",
        "offset": 0,
        "slot": "0",
        "type": "t_uint256"
      },
      {
        "astId": 3703,
        "contract": "contracts/SecuritizeMarketplace.sol:SecuritizeMarketplace",
        "label": "_nameFallback",
        "offset": 0,
        "slot": "1",
        "type": "t_string_storage"
      },
      {
        "astId": 3705,
        "contract": "contracts/SecuritizeMarketplace.sol:SecuritizeMarketplace",
        "label": "_versionFallback",
        "offset": 0,
        "slot": "2",
        "type": "t_string_storage"
      },
      {
        "astId": 8251,
        "contract": "contracts/SecuritizeMarketplace.sol:SecuritizeMarketplace",
        "label": "listedItems",
        "offset": 0,
        "slot": "3",
        "type": "t_mapping(t_uint256,t_struct(ListedItem)9114_storage)"
      },
      {
        "astId": 8256,
        "contract": "contracts/SecuritizeMarketplace.sol:SecuritizeMarketplace",
        "label": "sellers",
        "offset": 0,
        "slot": "4",
        "type": "t_mapping(t_address,t_struct(Seller)9129_storage)"
      },
      {
        "astId": 8258,
        "contract": "contracts/SecuritizeMarketplace.sol:SecuritizeMarketplace",
        "label": "_currentListId",
        "offset": 0,
        "slot": "5",
        "type": "t_uint256"
      },
      {
        "astId": 8261,
        "contract": "contracts/SecuritizeMarketplace.sol:SecuritizeMarketplace",
        "label": "_itemsSet",
        "offset": 0,
        "slot": "6",
        "type": "t_struct(UintSet)8063_storage"
      }
    ],
    "types": {
      "t_address": {
        "encoding": "inplace",
        "label": "address",
        "numberOfBytes": "20"
      },
      "t_array(t_bytes32)dyn_storage": {
        "base": "t_bytes32",
        "encoding": "dynamic_array",
        "label": "bytes32[]",
        "numberOfBytes": "32"
      },
      "t_bool": {
        "encoding": "inplace",
        "label": "bool",
        "numberOfBytes": "1"
      },
      "t_bytes32": {
        "encoding": "inplace",
        "label": "bytes32",
        "numberOfBytes": "32"
      },
      "t_mapping(t_address,t_struct(Seller)9129_storage)": {
        "encoding": "mapping",
        "key": "t_address",
        "label": "mapping(address => struct ISecuritizeMarketplace.Seller)",
        "numberOfBytes": "32",
        "value": "t_struct(Seller)9129_storage"
      },
      "t_mapping(t_bytes32,t_uint256)": {
        "encoding": "mapping",
        "key": "t_bytes32",
        "label": "mapping(bytes32 => uint256)",
        "numberOfBytes": "32",
        "value": "t_uint256"
      },
      "t_mapping(t_uint256,t_struct(ListedItem)9114_storage)": {
        "encoding": "mapping",
        "key": "t_uint256",
        "label": "mapping(uint256 => struct ISecuritizeMarketplace.ListedItem)",
        "numberOfBytes": "32",
        "value": "t_struct(ListedItem)9114_storage"
      },
      "t_string_storage": {
        "encoding": "bytes",
        "label": "string",
        "numberOfBytes": "32"
      },
      "t_struct(ListedItem)9114_storage": {
        "encoding": "inplace",
        "label": "struct ISecuritizeMarketplace.ListedItem",
        "members": [
          {
            "astId": 9105,
            "contract": "contracts/SecuritizeMarketplace.sol:SecuritizeMarketplace",
            "label": "token",
            "offset": 0,
            "slot": "0",
            "type": "t_address"
          },
          {
            "astId": 9107,
            "contract": "contracts/SecuritizeMarketplace.sol:SecuritizeMarketplace",
            "label": "seller",
            "offset": 0,
            "slot": "1",
            "type": "t_address"
          },
          {
            "astId": 9109,
            "contract": "contracts/SecuritizeMarketplace.sol:SecuritizeMarketplace",
            "label": "amount",
            "offset": 0,
            "slot": "2",
            "type": "t_uint256"
          },
          {
            "astId": 9111,
            "contract": "contracts/SecuritizeMarketplace.sol:SecuritizeMarketplace",
            "label": "price",
            "offset": 0,
            "slot": "3",
            "type": "t_uint256"
          },
          {
            "astId": 9113,
            "contract": "contracts/SecuritizeMarketplace.sol:SecuritizeMarketplace",
            "label": "active",
            "offset": 0,
            "slot": "4",
            "type": "t_bool"
          }
        ],
        "numberOfBytes": "160"
      },
      "t_struct(Seller)9129_storage": {
        "encoding": "inplace",
        "label": "struct ISecuritizeMarketplace.Seller",
        "members": [
          {
            "astId": 9116,
            "contract": "contracts/SecuritizeMarketplace.sol:SecuritizeMarketplace",
            "label": "activeListedItems",
            "offset": 0,
            "slot": "0",
            "type": "t_uint256"
          },
          {
            "astId": 9118,
            "contract": "contracts/SecuritizeMarketplace.sol:SecuritizeMarketplace",
            "label": "totalSoldItems",
            "offset": 0,
            "slot": "1",
            "type": "t_uint256"
          },
          {
            "astId": 9120,
            "contract": "contracts/SecuritizeMarketplace.sol:SecuritizeMarketplace",
            "label": "totalListedItems",
            "offset": 0,
            "slot": "2",
            "type": "t_uint256"
          },
          {
            "astId": 9122,
            "contract": "contracts/SecuritizeMarketplace.sol:SecuritizeMarketplace",
            "label": "pendingWithdrawals",
            "offset": 0,
            "slot": "3",
            "type": "t_uint256"
          },
          {
            "astId": 9124,
            "contract": "contracts/SecuritizeMarketplace.sol:SecuritizeMarketplace",
            "label": "balance",
            "offset": 0,
            "slot": "4",
            "type": "t_uint256"
          },
          {
            "astId": 9126,
            "contract": "contracts/SecuritizeMarketplace.sol:SecuritizeMarketplace",
            "label": "signedNonce",
            "offset": 0,
            "slot": "5",
            "type": "t_uint256"
          },
          {
            "astId": 9128,
            "contract": "contracts/SecuritizeMarketplace.sol:SecuritizeMarketplace",
            "label": "active",
            "offset": 0,
            "slot": "6",
            "type": "t_bool"
          }
        ],
        "numberOfBytes": "224"
      },
      "t_struct(Set)7522_storage": {
        "encoding": "inplace",
        "label": "struct EnumerableSet.Set",
        "members": [
          {
            "astId": 7517,
            "contract": "contracts/SecuritizeMarketplace.sol:SecuritizeMarketplace",
            "label": "_values",
            "offset": 0,
            "slot": "0",
            "type": "t_array(t_bytes32)dyn_storage"
          },
          {
            "astId": 7521,
            "contract": "contracts/SecuritizeMarketplace.sol:SecuritizeMarketplace",
            "label": "_positions",
            "offset": 0,
            "slot": "1",
            "type": "t_mapping(t_bytes32,t_uint256)"
          }
        ],
        "numberOfBytes": "64"
      },
      "t_struct(UintSet)8063_storage": {
        "encoding": "inplace",
        "label": "struct EnumerableSet.UintSet",
        "members": [
          {
            "astId": 8062,
            "contract": "contracts/SecuritizeMarketplace.sol:SecuritizeMarketplace",
            "label": "_inner",
            "offset": 0,
            "slot": "0",
            "type": "t_struct(Set)7522_storage"
          }
        ],
        "numberOfBytes": "64"
      },
      "t_uint256": {
        "encoding": "inplace",
        "label": "uint256",
        "numberOfBytes": "32"
      }
    }
  }
}